{
  "_format": "hh-sol-artifact-1",
  "contractName": "TimeLockSavings",
  "sourceName": "contracts/TimeLockSavings.sol",
  "abi": [
    {
      "inputs": [
        {
          "internalType": "address",
          "name": "_penaltiesWallet",
          "type": "address"
        },
        {
          "internalType": "address",
          "name": "_savingsWallet",
          "type": "address"
        }
      ],
      "stateMutability": "nonpayable",
      "type": "constructor"
    },
    {
      "inputs": [
        {
          "internalType": "address",
          "name": "owner",
          "type": "address"
        }
      ],
      "name": "OwnableInvalidOwner",
      "type": "error"
    },
    {
      "inputs": [
        {
          "internalType": "address",
          "name": "account",
          "type": "address"
        }
      ],
      "name": "OwnableUnauthorizedAccount",
      "type": "error"
    },
    {
      "inputs": [],
      "name": "ReentrancyGuardReentrantCall",
      "type": "error"
    },
    {
      "anonymous": false,
      "inputs": [
        {
          "indexed": true,
          "internalType": "address",
          "name": "user",
          "type": "address"
        },
        {
          "indexed": false,
          "internalType": "uint256",
          "name": "amount",
          "type": "uint256"
        },
        {
          "indexed": false,
          "internalType": "string",
          "name": "reason",
          "type": "string"
        },
        {
          "indexed": false,
          "internalType": "uint256",
          "name": "maturityDate",
          "type": "uint256"
        },
        {
          "indexed": false,
          "internalType": "uint256",
          "name": "depositIndex",
          "type": "uint256"
        }
      ],
      "name": "DepositMade",
      "type": "event"
    },
    {
      "anonymous": false,
      "inputs": [
        {
          "indexed": true,
          "internalType": "address",
          "name": "previousOwner",
          "type": "address"
        },
        {
          "indexed": true,
          "internalType": "address",
          "name": "newOwner",
          "type": "address"
        }
      ],
      "name": "OwnershipTransferred",
      "type": "event"
    },
    {
      "anonymous": false,
      "inputs": [
        {
          "indexed": false,
          "internalType": "uint256",
          "name": "oldRate",
          "type": "uint256"
        },
        {
          "indexed": false,
          "internalType": "uint256",
          "name": "newRate",
          "type": "uint256"
        }
      ],
      "name": "PenaltyRateUpdated",
      "type": "event"
    },
    {
      "anonymous": false,
      "inputs": [
        {
          "indexed": true,
          "internalType": "address",
          "name": "user",
          "type": "address"
        },
        {
          "indexed": false,
          "internalType": "uint256",
          "name": "amount",
          "type": "uint256"
        },
        {
          "indexed": false,
          "internalType": "bool",
          "name": "early",
          "type": "bool"
        },
        {
          "indexed": false,
          "internalType": "uint256",
          "name": "penalty",
          "type": "uint256"
        }
      ],
      "name": "WithdrawalMade",
      "type": "event"
    },
    {
      "inputs": [
        {
          "internalType": "string",
          "name": "_reason",
          "type": "string"
        },
        {
          "internalType": "uint256",
          "name": "_maturityDate",
          "type": "uint256"
        }
      ],
      "name": "deposit",
      "outputs": [],
      "stateMutability": "payable",
      "type": "function"
    },
    {
      "inputs": [],
      "name": "earlyWithdrawalPenalty",
      "outputs": [
        {
          "internalType": "uint256",
          "name": "",
          "type": "uint256"
        }
      ],
      "stateMutability": "view",
      "type": "function"
    },
    {
      "inputs": [
        {
          "internalType": "address",
          "name": "_user",
          "type": "address"
        }
      ],
      "name": "getSavingsBalance",
      "outputs": [
        {
          "internalType": "uint256",
          "name": "",
          "type": "uint256"
        }
      ],
      "stateMutability": "view",
      "type": "function"
    },
    {
      "inputs": [],
      "name": "getTotalPenalties",
      "outputs": [
        {
          "internalType": "uint256",
          "name": "",
          "type": "uint256"
        }
      ],
      "stateMutability": "view",
      "type": "function"
    },
    {
      "inputs": [
        {
          "internalType": "address",
          "name": "_user",
          "type": "address"
        }
      ],
      "name": "getUserDeposits",
      "outputs": [
        {
          "components": [
            {
              "internalType": "address",
              "name": "user",
              "type": "address"
            },
            {
              "internalType": "uint256",
              "name": "amount",
              "type": "uint256"
            },
            {
              "internalType": "string",
              "name": "reason",
              "type": "string"
            },
            {
              "internalType": "uint256",
              "name": "maturityDate",
              "type": "uint256"
            },
            {
              "internalType": "bool",
              "name": "withdrawn",
              "type": "bool"
            }
          ],
          "internalType": "struct TimeLockSavings.Deposit[]",
          "name": "",
          "type": "tuple[]"
        }
      ],
      "stateMutability": "view",
      "type": "function"
    },
    {
      "inputs": [],
      "name": "owner",
      "outputs": [
        {
          "internalType": "address",
          "name": "",
          "type": "address"
        }
      ],
      "stateMutability": "view",
      "type": "function"
    },
    {
      "inputs": [],
      "name": "penaltiesWallet",
      "outputs": [
        {
          "internalType": "address",
          "name": "",
          "type": "address"
        }
      ],
      "stateMutability": "view",
      "type": "function"
    },
    {
      "inputs": [],
      "name": "renounceOwnership",
      "outputs": [],
      "stateMutability": "nonpayable",
      "type": "function"
    },
    {
      "inputs": [
        {
          "internalType": "address",
          "name": "",
          "type": "address"
        }
      ],
      "name": "savingsBalance",
      "outputs": [
        {
          "internalType": "uint256",
          "name": "",
          "type": "uint256"
        }
      ],
      "stateMutability": "view",
      "type": "function"
    },
    {
      "inputs": [],
      "name": "savingsWallet",
      "outputs": [
        {
          "internalType": "address",
          "name": "",
          "type": "address"
        }
      ],
      "stateMutability": "view",
      "type": "function"
    },
    {
      "inputs": [
        {
          "internalType": "uint256",
          "name": "_newPenalty",
          "type": "uint256"
        }
      ],
      "name": "setPenaltyRate",
      "outputs": [],
      "stateMutability": "nonpayable",
      "type": "function"
    },
    {
      "inputs": [],
      "name": "totalPenalties",
      "outputs": [
        {
          "internalType": "uint256",
          "name": "",
          "type": "uint256"
        }
      ],
      "stateMutability": "view",
      "type": "function"
    },
    {
      "inputs": [
        {
          "internalType": "address",
          "name": "newOwner",
          "type": "address"
        }
      ],
      "name": "transferOwnership",
      "outputs": [],
      "stateMutability": "nonpayable",
      "type": "function"
    },
    {
      "inputs": [
        {
          "internalType": "address",
          "name": "",
          "type": "address"
        },
        {
          "internalType": "uint256",
          "name": "",
          "type": "uint256"
        }
      ],
      "name": "userDeposits",
      "outputs": [
        {
          "internalType": "address",
          "name": "user",
          "type": "address"
        },
        {
          "internalType": "uint256",
          "name": "amount",
          "type": "uint256"
        },
        {
          "internalType": "string",
          "name": "reason",
          "type": "string"
        },
        {
          "internalType": "uint256",
          "name": "maturityDate",
          "type": "uint256"
        },
        {
          "internalType": "bool",
          "name": "withdrawn",
          "type": "bool"
        }
      ],
      "stateMutability": "view",
      "type": "function"
    },
    {
      "inputs": [
        {
          "internalType": "uint256",
          "name": "_depositIndex",
          "type": "uint256"
        }
      ],
      "name": "withdraw",
      "outputs": [],
      "stateMutability": "nonpayable",
      "type": "function"
    }
  ],
  "bytecode": "0x60c0604052600a6005553480156200001657600080fd5b5060405162001413380380620014138339810160408190526200003991620001a9565b600160005533806200006657604051631e4fbdf760e01b8152600060048201526024015b60405180910390fd5b62000071816200013a565b506001600160a01b038216620000ca5760405162461bcd60e51b815260206004820152601860248201527f496e76616c69642070656e616c746965732077616c6c6574000000000000000060448201526064016200005d565b6001600160a01b038116620001225760405162461bcd60e51b815260206004820152601660248201527f496e76616c696420736176696e67732077616c6c65740000000000000000000060448201526064016200005d565b6001600160a01b039182166080521660a052620001e1565b600180546001600160a01b038381166001600160a01b0319831681179093556040519116919082907f8be0079c531659141344cd1fd0a4f28419497f9722a3daafe3b4186f6b6457e090600090a35050565b80516001600160a01b0381168114620001a457600080fd5b919050565b60008060408385031215620001bd57600080fd5b620001c8836200018c565b9150620001d8602084016200018c565b90509250929050565b60805160a0516111fe62000215600039600081816101d90152610ab301526000818161022501526106c201526111fe6000f3fe6080604052600436106100e85760003560e01c80635e4a1d361161008a5780638da5cb5b116100595780638da5cb5b146102bd5780638e27d719146102db578063a1bab447146102ee578063f2fde38b1461030e57600080fd5b80635e4a1d36146102475780635f95c8fa1461027d5780636c52876b14610293578063715018a6146102a857600080fd5b80632a5bf6d2116100c65780632a5bf6d2146101785780632e1a7d4d146101a557806336fbd745146101c7578063474ee0811461021357600080fd5b806308f43333146100ed57806327c9a2f414610127578063291a3d9e14610162575b600080fd5b3480156100f957600080fd5b5061010d610108366004610d6a565b61032e565b60405161011e959493929190610dda565b60405180910390f35b34801561013357600080fd5b50610154610142366004610e1a565b60036020526000908152604090205481565b60405190815260200161011e565b34801561016e57600080fd5b5061015460055481565b34801561018457600080fd5b50610198610193366004610e1a565b610414565b60405161011e9190610e3c565b3480156101b157600080fd5b506101c56101c0366004610ede565b61055a565b005b3480156101d357600080fd5b506101fb7f000000000000000000000000000000000000000000000000000000000000000081565b6040516001600160a01b03909116815260200161011e565b34801561021f57600080fd5b506101fb7f000000000000000000000000000000000000000000000000000000000000000081565b34801561025357600080fd5b50610154610262366004610e1a565b6001600160a01b031660009081526003602052604090205490565b34801561028957600080fd5b5061015460045481565b34801561029f57600080fd5b50600454610154565b3480156102b457600080fd5b506101c56108b3565b3480156102c957600080fd5b506001546001600160a01b03166101fb565b6101c56102e9366004610f0d565b6108c7565b3480156102fa57600080fd5b506101c5610309366004610ede565b610bd9565b34801561031a57600080fd5b506101c5610329366004610e1a565b610c6a565b6002602052816000526040600020818154811061034a57600080fd5b60009182526020909120600590910201805460018201546002830180546001600160a01b0390931695509093509061038190610fc2565b80601f01602080910402602001604051908101604052809291908181526020018280546103ad90610fc2565b80156103fa5780601f106103cf576101008083540402835291602001916103fa565b820191906000526020600020905b8154815290600101906020018083116103dd57829003601f168201915b50505050600383015460049093015491929160ff16905085565b6001600160a01b0381166000908152600260209081526040808320805482518185028101850190935280835260609492939192909184015b8282101561054f5760008481526020908190206040805160a0810182526005860290920180546001600160a01b031683526001810154938301939093526002830180549293929184019161049f90610fc2565b80601f01602080910402602001604051908101604052809291908181526020018280546104cb90610fc2565b80156105185780601f106104ed57610100808354040283529160200191610518565b820191906000526020600020905b8154815290600101906020018083116104fb57829003601f168201915b5050509183525050600382015460208083019190915260049092015460ff161515604090910152908252600192909201910161044c565b505050509050919050565b610562610ca5565b3360009081526002602052604090205481106105bd5760405162461bcd60e51b8152602060048201526015602482015274092dcecc2d8d2c840c8cae0dee6d2e840d2dcc8caf605b1b60448201526064015b60405180910390fd5b3360009081526002602052604081208054839081106105de576105de610ffc565b60009182526020909120600590910201600481015490915060ff161561063a5760405162461bcd60e51b815260206004820152601160248201527020b63932b0b23c903bb4ba34323930bbb760791b60448201526064016105b4565b60008160010154116106815760405162461bcd60e51b815260206004820152601060248201526f139bc819195c1bdcda5d08199bdd5b9960821b60448201526064016105b4565b600181015460038201546000904210801561079a576064600554846106a69190611028565b6106b09190611045565b91506106bc8284611067565b925060007f00000000000000000000000000000000000000000000000000000000000000006001600160a01b03168360405160006040518083038185875af1925050503d806000811461072b576040519150601f19603f3d011682016040523d82523d6000602084013e610730565b606091505b50509050806107815760405162461bcd60e51b815260206004820152601760248201527f50656e616c7479207472616e73666572206661696c656400000000000000000060448201526064016105b4565b8260046000828254610793919061107a565b9091555050505b60048401805460ff1916600190811790915584015433600090815260036020526040812080549091906107ce908490611067565b9091555050604051600090339085908381818185875af1925050503d8060008114610815576040519150601f19603f3d011682016040523d82523d6000602084013e61081a565b606091505b505090508061085d5760405162461bcd60e51b815260206004820152600f60248201526e151c985b9cd9995c8819985a5b1959608a1b60448201526064016105b4565b60408051858152831515602082015290810184905233907fa37f81da89fc35ea95622bea587259b7db5758c134bb3f0b4b8321cbea6679d79060600160405180910390a250505050506108b06001600055565b50565b6108bb610ccf565b6108c56000610cfc565b565b6108cf610ca5565b6000341161092d5760405162461bcd60e51b815260206004820152602560248201527f4465706f73697420616d6f756e74206d75737420626520677265617465722074604482015264068616e20360dc1b60648201526084016105b4565b4281116109885760405162461bcd60e51b815260206004820152602360248201527f4d617475726974792064617465206d75737420626520696e207468652066757460448201526275726560e81b60648201526084016105b4565b60008251116109d25760405162461bcd60e51b8152602060048201526016602482015275526561736f6e2063616e6e6f7420626520656d70747960501b60448201526064016105b4565b336000818152600260208181526040808420815160a08101835295865234868401908152918601888152606087018890526080870186905281546001808201845592875293909520865160059094020180546001600160a01b0319166001600160a01b03909416939093178355905190820155915190820190610a5590826110dc565b5060608201516003828101919091556080909201516004909101805460ff1916911515919091179055336000908152602091909152604081208054349290610a9e90849061107a565b90915550506040516000906001600160a01b037f0000000000000000000000000000000000000000000000000000000000000000169034908381818185875af1925050503d8060008114610b0e576040519150601f19603f3d011682016040523d82523d6000602084013e610b13565b606091505b5050905080610b6e5760405162461bcd60e51b815260206004820152602160248201527f5472616e7366657220746f20736176696e67732077616c6c6574206661696c656044820152601960fa1b60648201526084016105b4565b336000818152600260205260409020547f66df69957ceb18b43d8949c4d413cf8dd7fe95185032e6a80cf704530e04374b90349086908690610bb290600190611067565b604051610bc2949392919061119c565b60405180910390a250610bd56001600055565b5050565b610be1610ccf565b6014811115610c255760405162461bcd60e51b815260206004820152601060248201526f0a0cadcc2d8e8f240e8dede40d0d2ced60831b60448201526064016105b4565b600580549082905560408051828152602081018490527fdd20540e487a8668a900c5089d9e5d2cb4cb734eef8e75a3a4842ce04ac79d9d910160405180910390a15050565b610c72610ccf565b6001600160a01b038116610c9c57604051631e4fbdf760e01b8152600060048201526024016105b4565b6108b081610cfc565b600260005403610cc857604051633ee5aeb560e01b815260040160405180910390fd5b6002600055565b6001546001600160a01b031633146108c55760405163118cdaa760e01b81523360048201526024016105b4565b600180546001600160a01b038381166001600160a01b0319831681179093556040519116919082907f8be0079c531659141344cd1fd0a4f28419497f9722a3daafe3b4186f6b6457e090600090a35050565b80356001600160a01b0381168114610d6557600080fd5b919050565b60008060408385031215610d7d57600080fd5b610d8683610d4e565b946020939093013593505050565b6000815180845260005b81811015610dba57602081850181015186830182015201610d9e565b506000602082860101526020601f19601f83011685010191505092915050565b60018060a01b038616815284602082015260a060408201526000610e0160a0830186610d94565b6060830194909452509015156080909101529392505050565b600060208284031215610e2c57600080fd5b610e3582610d4e565b9392505050565b60006020808301818452808551808352604092508286019150828160051b87010184880160005b83811015610ed057888303603f19018552815180516001600160a01b0316845287810151888501528681015160a088860181905290610ea482870182610d94565b606084810151908801526080938401511515939096019290925250509386019390860190600101610e63565b509098975050505050505050565b600060208284031215610ef057600080fd5b5035919050565b634e487b7160e01b600052604160045260246000fd5b60008060408385031215610f2057600080fd5b823567ffffffffffffffff80821115610f3857600080fd5b818501915085601f830112610f4c57600080fd5b813581811115610f5e57610f5e610ef7565b604051601f8201601f19908116603f01168101908382118183101715610f8657610f86610ef7565b81604052828152886020848701011115610f9f57600080fd5b826020860160208301376000602093820184015298969091013596505050505050565b600181811c90821680610fd657607f821691505b602082108103610ff657634e487b7160e01b600052602260045260246000fd5b50919050565b634e487b7160e01b600052603260045260246000fd5b634e487b7160e01b600052601160045260246000fd5b808202811582820484141761103f5761103f611012565b92915050565b60008261106257634e487b7160e01b600052601260045260246000fd5b500490565b8181038181111561103f5761103f611012565b8082018082111561103f5761103f611012565b601f8211156110d757600081815260208120601f850160051c810160208610156110b45750805b601f850160051c820191505b818110156110d3578281556001016110c0565b5050505b505050565b815167ffffffffffffffff8111156110f6576110f6610ef7565b61110a816111048454610fc2565b8461108d565b602080601f83116001811461113f57600084156111275750858301515b600019600386901b1c1916600185901b1785556110d3565b600085815260208120601f198616915b8281101561116e5788860151825594840194600190910190840161114f565b508582101561118c5787850151600019600388901b60f8161c191681555b5050505050600190811b01905550565b8481526080602082015260006111b56080830186610d94565b604083019490945250606001529291505056fea26469706673582212203625b7b5cf70cec9fb84e2618af6de2a97b3915bdb7fcb7d1bcc7b0de52ced9864736f6c63430008140033",
  "linkReferences": {},
  "deployedLinkReferences": {}
}