{"contracts/TimeLockSavings.sol":{"TimeLockSavings":{"abi":[{"inputs":[{"internalType":"address","name":"_penaltiesWallet","type":"address"}],"stateMutability":"nonpayable","type":"constructor"},{"inputs":[{"internalType":"address","name":"owner","type":"address"}],"name":"OwnableInvalidOwner","type":"error"},{"inputs":[{"internalType":"address","name":"account","type":"address"}],"name":"OwnableUnauthorizedAccount","type":"error"},{"inputs":[],"name":"ReentrancyGuardReentrantCall","type":"error"},{"anonymous":false,"inputs":[{"indexed":true,"internalType":"address","name":"depositor","type":"address"},{"indexed":false,"internalType":"uint256","name":"amount","type":"uint256"},{"indexed":false,"internalType":"string","name":"reason","type":"string"},{"indexed":false,"internalType":"uint256","name":"maturityDate","type":"uint256"},{"indexed":false,"internalType":"uint256","name":"depositIndex","type":"uint256"}],"name":"DepositMade","type":"event"},{"anonymous":false,"inputs":[{"indexed":true,"internalType":"address","name":"previousOwner","type":"address"},{"indexed":true,"internalType":"address","name":"newOwner","type":"address"}],"name":"OwnershipTransferred","type":"event"},{"anonymous":false,"inputs":[{"indexed":false,"internalType":"uint256","name":"oldRate","type":"uint256"},{"indexed":false,"internalType":"uint256","name":"newRate","type":"uint256"}],"name":"PenaltyRateUpdated","type":"event"},{"anonymous":false,"inputs":[{"indexed":true,"internalType":"address","name":"depositor","type":"address"},{"indexed":false,"internalType":"uint256","name":"amount","type":"uint256"},{"indexed":false,"internalType":"bool","name":"early","type":"bool"},{"indexed":false,"internalType":"uint256","name":"penalty","type":"uint256"}],"name":"WithdrawalMade","type":"event"},{"inputs":[{"internalType":"string","name":"_reason","type":"string"},{"internalType":"uint256","name":"_maturityDate","type":"uint256"}],"name":"deposit","outputs":[],"stateMutability":"payable","type":"function"},{"inputs":[{"internalType":"address","name":"","type":"address"},{"internalType":"uint256","name":"","type":"uint256"}],"name":"deposits","outputs":[{"internalType":"uint256","name":"amount","type":"uint256"},{"internalType":"string","name":"reason","type":"string"},{"internalType":"uint256","name":"maturityDate","type":"uint256"},{"internalType":"bool","name":"withdrawn","type":"bool"}],"stateMutability":"view","type":"function"},{"inputs":[],"name":"earlyWithdrawalPenalty","outputs":[{"internalType":"uint256","name":"","type":"uint256"}],"stateMutability":"view","type":"function"},{"inputs":[],"name":"getDeposits","outputs":[{"components":[{"internalType":"uint256","name":"amount","type":"uint256"},{"internalType":"string","name":"reason","type":"string"},{"internalType":"uint256","name":"maturityDate","type":"uint256"},{"internalType":"bool","name":"withdrawn","type":"bool"}],"internalType":"struct TimeLockSavings.Deposit[]","name":"","type":"tuple[]"}],"stateMutability":"view","type":"function"},{"inputs":[],"name":"owner","outputs":[{"internalType":"address","name":"","type":"address"}],"stateMutability":"view","type":"function"},{"inputs":[],"name":"penaltiesWallet","outputs":[{"internalType":"address","name":"","type":"address"}],"stateMutability":"view","type":"function"},{"inputs":[],"name":"renounceOwnership","outputs":[],"stateMutability":"nonpayable","type":"function"},{"inputs":[{"internalType":"uint256","name":"_newPenalty","type":"uint256"}],"name":"setPenaltyRate","outputs":[],"stateMutability":"nonpayable","type":"function"},{"inputs":[{"internalType":"address","name":"newOwner","type":"address"}],"name":"transferOwnership","outputs":[],"stateMutability":"nonpayable","type":"function"},{"inputs":[{"internalType":"uint256","name":"_depositIndex","type":"uint256"}],"name":"withdraw","outputs":[],"stateMutability":"nonpayable","type":"function"}],"evm":{"bytecode":{"linkReferences":{},"object":"60a0604052600a60035534801561001557600080fd5b5060405161106238038061106283398101604081905261003491610123565b6001600055338061006057604051631e4fbdf760e01b8152600060048201526024015b60405180910390fd5b610069816100d1565b506001600160a01b0381166100c05760405162461bcd60e51b815260206004820152601860248201527f496e76616c69642070656e616c746965732077616c6c657400000000000000006044820152606401610057565b6001600160a01b0316608052610153565b600180546001600160a01b038381166001600160a01b0319831681179093556040519116919082907f8be0079c531659141344cd1fd0a4f28419497f9722a3daafe3b4186f6b6457e090600090a35050565b60006020828403121561013557600080fd5b81516001600160a01b038116811461014c57600080fd5b9392505050565b608051610eee6101746000396000818160f301526103640152610eee6000f3fe6080604052600436106100915760003560e01c80638da5cb5b116100595780638da5cb5b146101645780638e27d71914610182578063a1bab44714610195578063d6d68177146101b5578063f2fde38b146101e557600080fd5b8063291a3d9e146100965780632e1a7d4d146100bf578063474ee081146100e15780636b149d871461012d578063715018a61461014f575b600080fd5b3480156100a257600080fd5b506100ac60035481565b6040519081526020015b60405180910390f35b3480156100cb57600080fd5b506100df6100da366004610a75565b610205565b005b3480156100ed57600080fd5b506101157f000000000000000000000000000000000000000000000000000000000000000081565b6040516001600160a01b0390911681526020016100b6565b34801561013957600080fd5b50610142610514565b6040516100b69190610ad4565b34801561015b57600080fd5b506100df610639565b34801561017057600080fd5b506001546001600160a01b0316610115565b6100df610190366004610b77565b61064d565b3480156101a157600080fd5b506100df6101b0366004610a75565b610827565b3480156101c157600080fd5b506101d56101d0366004610c48565b6108b8565b6040516100b69493929190610c72565b3480156101f157600080fd5b506100df610200366004610ca3565b610991565b61020d6109cc565b3360009081526002602052604090205481106102685760405162461bcd60e51b8152602060048201526015602482015274092dcecc2d8d2c840c8cae0dee6d2e840d2dcc8caf605b1b60448201526064015b60405180910390fd5b33600090815260026020526040812080548390811061028957610289610cc5565b60009182526020909120600490910201600381015490915060ff16156102e55760405162461bcd60e51b815260206004820152601160248201527020b63932b0b23c903bb4ba34323930bbb760791b604482015260640161025f565b80546103265760405162461bcd60e51b815260206004820152601060248201526f139bc819195c1bdcda5d08199bdd5b9960821b604482015260640161025f565b8054600282015460009042108015610425576064600354846103489190610cf1565b6103529190610d0e565b915061035e8284610d30565b925060007f00000000000000000000000000000000000000000000000000000000000000006001600160a01b03168360405160006040518083038185875af1925050503d80600081146103cd576040519150601f19603f3d011682016040523d82523d6000602084013e6103d2565b606091505b50509050806104235760405162461bcd60e51b815260206004820152601760248201527f50656e616c7479207472616e73666572206661696c6564000000000000000000604482015260640161025f565b505b60038401805460ff19166001179055604051600090339085908381818185875af1925050503d8060008114610476576040519150601f19603f3d011682016040523d82523d6000602084013e61047b565b606091505b50509050806104be5760405162461bcd60e51b815260206004820152600f60248201526e151c985b9cd9995c8819985a5b1959608a1b604482015260640161025f565b60408051858152831515602082015290810184905233907fa37f81da89fc35ea95622bea587259b7db5758c134bb3f0b4b8321cbea6679d79060600160405180910390a250505050506105116001600055565b50565b336000908152600260209081526040808320805482518185028101850190935280835260609492939192909184015b8282101561063057838290600052602060002090600402016040518060800160405290816000820154815260200160018201805461058090610d43565b80601f01602080910402602001604051908101604052809291908181526020018280546105ac90610d43565b80156105f95780601f106105ce576101008083540402835291602001916105f9565b820191906000526020600020905b8154815290600101906020018083116105dc57829003601f168201915b5050509183525050600282015460208083019190915260039092015460ff1615156040909101529082526001929092019101610543565b50505050905090565b6106416109f6565b61064b6000610a23565b565b6106556109cc565b600034116106b35760405162461bcd60e51b815260206004820152602560248201527f4465706f73697420616d6f756e74206d75737420626520677265617465722074604482015264068616e20360dc1b606482015260840161025f565b42811161070e5760405162461bcd60e51b815260206004820152602360248201527f4d617475726974792064617465206d75737420626520696e207468652066757460448201526275726560e81b606482015260840161025f565b60008251116107585760405162461bcd60e51b8152602060048201526016602482015275526561736f6e2063616e6e6f7420626520656d70747960501b604482015260640161025f565b336000908152600260209081526040808320805482516080810184523481528085018881529381018790526060810186905260018083018455928652939094208351600486029091019081559151908201906107b49082610dcc565b5060408281015160028301556060909201516003909101805460ff19169115159190911790555133907f66df69957ceb18b43d8949c4d413cf8dd7fe95185032e6a80cf704530e04374b90610810903490879087908790610e8c565b60405180910390a2506108236001600055565b5050565b61082f6109f6565b60148111156108735760405162461bcd60e51b815260206004820152601060248201526f0a0cadcc2d8e8f240e8dede40d0d2ced60831b604482015260640161025f565b600380549082905560408051828152602081018490527fdd20540e487a8668a900c5089d9e5d2cb4cb734eef8e75a3a4842ce04ac79d9d910160405180910390a15050565b600260205281600052604060002081815481106108d457600080fd5b9060005260206000209060040201600091509150508060000154908060010180546108fe90610d43565b80601f016020809104026020016040519081016040528092919081815260200182805461092a90610d43565b80156109775780601f1061094c57610100808354040283529160200191610977565b820191906000526020600020905b81548152906001019060200180831161095a57829003601f168201915b50505050600283015460039093015491929160ff16905084565b6109996109f6565b6001600160a01b0381166109c357604051631e4fbdf760e01b81526000600482015260240161025f565b61051181610a23565b6002600054036109ef57604051633ee5aeb560e01b815260040160405180910390fd5b6002600055565b6001546001600160a01b0316331461064b5760405163118cdaa760e01b815233600482015260240161025f565b600180546001600160a01b038381166001600160a01b0319831681179093556040519116919082907f8be0079c531659141344cd1fd0a4f28419497f9722a3daafe3b4186f6b6457e090600090a35050565b600060208284031215610a8757600080fd5b5035919050565b6000815180845260005b81811015610ab457602081850181015186830182015201610a98565b506000602082860101526020601f19601f83011685010191505092915050565b60006020808301818452808551808352604092508286019150828160051b87010184880160005b83811015610b5357603f19898403018552815160808151855288820151818a870152610b2982870182610a8e565b838a0151878b01526060938401511515939096019290925250509386019390860190600101610afb565b509098975050505050505050565b634e487b7160e01b600052604160045260246000fd5b60008060408385031215610b8a57600080fd5b823567ffffffffffffffff80821115610ba257600080fd5b818501915085601f830112610bb657600080fd5b813581811115610bc857610bc8610b61565b604051601f8201601f19908116603f01168101908382118183101715610bf057610bf0610b61565b81604052828152886020848701011115610c0957600080fd5b826020860160208301376000602093820184015298969091013596505050505050565b80356001600160a01b0381168114610c4357600080fd5b919050565b60008060408385031215610c5b57600080fd5b610c6483610c2c565b946020939093013593505050565b848152608060208201526000610c8b6080830186610a8e565b60408301949094525090151560609091015292915050565b600060208284031215610cb557600080fd5b610cbe82610c2c565b9392505050565b634e487b7160e01b600052603260045260246000fd5b634e487b7160e01b600052601160045260246000fd5b8082028115828204841417610d0857610d08610cdb565b92915050565b600082610d2b57634e487b7160e01b600052601260045260246000fd5b500490565b81810381811115610d0857610d08610cdb565b600181811c90821680610d5757607f821691505b602082108103610d7757634e487b7160e01b600052602260045260246000fd5b50919050565b601f821115610dc757600081815260208120601f850160051c81016020861015610da45750805b601f850160051c820191505b81811015610dc357828155600101610db0565b5050505b505050565b815167ffffffffffffffff811115610de657610de6610b61565b610dfa81610df48454610d43565b84610d7d565b602080601f831160018114610e2f5760008415610e175750858301515b600019600386901b1c1916600185901b178555610dc3565b600085815260208120601f198616915b82811015610e5e57888601518255948401946001909101908401610e3f565b5085821015610e7c5787850151600019600388901b60f8161c191681555b5050505050600190811b01905550565b848152608060208201526000610ea56080830186610a8e565b604083019490945250606001529291505056fea264697066735822122010250e4f79df4979725d5065ce87b060594cc8c66adffece3fd3d550410d050064736f6c63430008140033","opcodes":"PUSH1 0xA0 PUSH1 0x40 MSTORE PUSH1 0xA PUSH1 0x3 SSTORE CALLVALUE DUP1 ISZERO PUSH2 0x15 JUMPI PUSH1 0x0 DUP1 REVERT JUMPDEST POP PUSH1 0x40 MLOAD PUSH2 0x1062 CODESIZE SUB DUP1 PUSH2 0x1062 DUP4 CODECOPY DUP2 ADD PUSH1 0x40 DUP2 SWAP1 MSTORE PUSH2 0x34 SWAP2 PUSH2 0x123 JUMP JUMPDEST PUSH1 0x1 PUSH1 0x0 SSTORE CALLER DUP1 PUSH2 0x60 JUMPI PUSH1 0x40 MLOAD PUSH4 0x1E4FBDF7 PUSH1 0xE0 SHL DUP2 MSTORE PUSH1 0x0 PUSH1 0x4 DUP3 ADD MSTORE PUSH1 0x24 ADD JUMPDEST PUSH1 0x40 MLOAD DUP1 SWAP2 SUB SWAP1 REVERT JUMPDEST PUSH2 0x69 DUP2 PUSH2 0xD1 JUMP JUMPDEST POP PUSH1 0x1 PUSH1 0x1 PUSH1 0xA0 SHL SUB DUP2 AND PUSH2 0xC0 JUMPI PUSH1 0x40 MLOAD PUSH3 0x461BCD PUSH1 0xE5 SHL DUP2 MSTORE PUSH1 0x20 PUSH1 0x4 DUP3 ADD MSTORE PUSH1 0x18 PUSH1 0x24 DUP3 ADD MSTORE PUSH32 0x496E76616C69642070656E616C746965732077616C6C65740000000000000000 PUSH1 0x44 DUP3 ADD MSTORE PUSH1 0x64 ADD PUSH2 0x57 JUMP JUMPDEST PUSH1 0x1 PUSH1 0x1 PUSH1 0xA0 SHL SUB AND PUSH1 0x80 MSTORE PUSH2 0x153 JUMP JUMPDEST PUSH1 0x1 DUP1 SLOAD PUSH1 0x1 PUSH1 0x1 PUSH1 0xA0 SHL SUB DUP4 DUP2 AND PUSH1 0x1 PUSH1 0x1 PUSH1 0xA0 SHL SUB NOT DUP4 AND DUP2 OR SWAP1 SWAP4 SSTORE PUSH1 0x40 MLOAD SWAP2 AND SWAP2 SWAP1 DUP3 SWAP1 PUSH32 0x8BE0079C531659141344CD1FD0A4F28419497F9722A3DAAFE3B4186F6B6457E0 SWAP1 PUSH1 0x0 SWAP1 LOG3 POP POP JUMP JUMPDEST PUSH1 0x0 PUSH1 0x20 DUP3 DUP5 SUB SLT ISZERO PUSH2 0x135 JUMPI PUSH1 0x0 DUP1 REVERT JUMPDEST DUP2 MLOAD PUSH1 0x1 PUSH1 0x1 PUSH1 0xA0 SHL SUB DUP2 AND DUP2 EQ PUSH2 0x14C JUMPI PUSH1 0x0 DUP1 REVERT JUMPDEST SWAP4 SWAP3 POP POP POP JUMP JUMPDEST PUSH1 0x80 MLOAD PUSH2 0xEEE PUSH2 0x174 PUSH1 0x0 CODECOPY PUSH1 0x0 DUP2 DUP2 PUSH1 0xF3 ADD MSTORE PUSH2 0x364 ADD MSTORE PUSH2 0xEEE PUSH1 0x0 RETURN INVALID PUSH1 0x80 PUSH1 0x40 MSTORE PUSH1 0x4 CALLDATASIZE LT PUSH2 0x91 JUMPI PUSH1 0x0 CALLDATALOAD PUSH1 0xE0 SHR DUP1 PUSH4 0x8DA5CB5B GT PUSH2 0x59 JUMPI DUP1 PUSH4 0x8DA5CB5B EQ PUSH2 0x164 JUMPI DUP1 PUSH4 0x8E27D719 EQ PUSH2 0x182 JUMPI DUP1 PUSH4 0xA1BAB447 EQ PUSH2 0x195 JUMPI DUP1 PUSH4 0xD6D68177 EQ PUSH2 0x1B5 JUMPI DUP1 PUSH4 0xF2FDE38B EQ PUSH2 0x1E5 JUMPI PUSH1 0x0 DUP1 REVERT JUMPDEST DUP1 PUSH4 0x291A3D9E EQ PUSH2 0x96 JUMPI DUP1 PUSH4 0x2E1A7D4D EQ PUSH2 0xBF JUMPI DUP1 PUSH4 0x474EE081 EQ PUSH2 0xE1 JUMPI DUP1 PUSH4 0x6B149D87 EQ PUSH2 0x12D JUMPI DUP1 PUSH4 0x715018A6 EQ PUSH2 0x14F JUMPI JUMPDEST PUSH1 0x0 DUP1 REVERT JUMPDEST CALLVALUE DUP1 ISZERO PUSH2 0xA2 JUMPI PUSH1 0x0 DUP1 REVERT JUMPDEST POP PUSH2 0xAC PUSH1 0x3 SLOAD DUP2 JUMP JUMPDEST PUSH1 0x40 MLOAD SWAP1 DUP2 MSTORE PUSH1 0x20 ADD JUMPDEST PUSH1 0x40 MLOAD DUP1 SWAP2 SUB SWAP1 RETURN JUMPDEST CALLVALUE DUP1 ISZERO PUSH2 0xCB JUMPI PUSH1 0x0 DUP1 REVERT JUMPDEST POP PUSH2 0xDF PUSH2 0xDA CALLDATASIZE PUSH1 0x4 PUSH2 0xA75 JUMP JUMPDEST PUSH2 0x205 JUMP JUMPDEST STOP JUMPDEST CALLVALUE DUP1 ISZERO PUSH2 0xED JUMPI PUSH1 0x0 DUP1 REVERT JUMPDEST POP PUSH2 0x115 PUSH32 0x0 DUP2 JUMP JUMPDEST PUSH1 0x40 MLOAD PUSH1 0x1 PUSH1 0x1 PUSH1 0xA0 SHL SUB SWAP1 SWAP2 AND DUP2 MSTORE PUSH1 0x20 ADD PUSH2 0xB6 JUMP JUMPDEST CALLVALUE DUP1 ISZERO PUSH2 0x139 JUMPI PUSH1 0x0 DUP1 REVERT JUMPDEST POP PUSH2 0x142 PUSH2 0x514 JUMP JUMPDEST PUSH1 0x40 MLOAD PUSH2 0xB6 SWAP2 SWAP1 PUSH2 0xAD4 JUMP JUMPDEST CALLVALUE DUP1 ISZERO PUSH2 0x15B JUMPI PUSH1 0x0 DUP1 REVERT JUMPDEST POP PUSH2 0xDF PUSH2 0x639 JUMP JUMPDEST CALLVALUE DUP1 ISZERO PUSH2 0x170 JUMPI PUSH1 0x0 DUP1 REVERT JUMPDEST POP PUSH1 0x1 SLOAD PUSH1 0x1 PUSH1 0x1 PUSH1 0xA0 SHL SUB AND PUSH2 0x115 JUMP JUMPDEST PUSH2 0xDF PUSH2 0x190 CALLDATASIZE PUSH1 0x4 PUSH2 0xB77 JUMP JUMPDEST PUSH2 0x64D JUMP JUMPDEST CALLVALUE DUP1 ISZERO PUSH2 0x1A1 JUMPI PUSH1 0x0 DUP1 REVERT JUMPDEST POP PUSH2 0xDF PUSH2 0x1B0 CALLDATASIZE PUSH1 0x4 PUSH2 0xA75 JUMP JUMPDEST PUSH2 0x827 JUMP JUMPDEST CALLVALUE DUP1 ISZERO PUSH2 0x1C1 JUMPI PUSH1 0x0 DUP1 REVERT JUMPDEST POP PUSH2 0x1D5 PUSH2 0x1D0 CALLDATASIZE PUSH1 0x4 PUSH2 0xC48 JUMP JUMPDEST PUSH2 0x8B8 JUMP JUMPDEST PUSH1 0x40 MLOAD PUSH2 0xB6 SWAP5 SWAP4 SWAP3 SWAP2 SWAP1 PUSH2 0xC72 JUMP JUMPDEST CALLVALUE DUP1 ISZERO PUSH2 0x1F1 JUMPI PUSH1 0x0 DUP1 REVERT JUMPDEST POP PUSH2 0xDF PUSH2 0x200 CALLDATASIZE PUSH1 0x4 PUSH2 0xCA3 JUMP JUMPDEST PUSH2 0x991 JUMP JUMPDEST PUSH2 0x20D PUSH2 0x9CC JUMP JUMPDEST CALLER PUSH1 0x0 SWAP1 DUP2 MSTORE PUSH1 0x2 PUSH1 0x20 MSTORE PUSH1 0x40 SWAP1 KECCAK256 SLOAD DUP2 LT PUSH2 0x268 JUMPI PUSH1 0x40 MLOAD PUSH3 0x461BCD PUSH1 0xE5 SHL DUP2 MSTORE PUSH1 0x20 PUSH1 0x4 DUP3 ADD MSTORE PUSH1 0x15 PUSH1 0x24 DUP3 ADD MSTORE PUSH21 0x92DCECC2D8D2C840C8CAE0DEE6D2E840D2DCC8CAF PUSH1 0x5B SHL PUSH1 0x44 DUP3 ADD MSTORE PUSH1 0x64 ADD JUMPDEST PUSH1 0x40 MLOAD DUP1 SWAP2 SUB SWAP1 REVERT JUMPDEST CALLER PUSH1 0x0 SWAP1 DUP2 MSTORE PUSH1 0x2 PUSH1 0x20 MSTORE PUSH1 0x40 DUP2 KECCAK256 DUP1 SLOAD DUP4 SWAP1 DUP2 LT PUSH2 0x289 JUMPI PUSH2 0x289 PUSH2 0xCC5 JUMP JUMPDEST PUSH1 0x0 SWAP2 DUP3 MSTORE PUSH1 0x20 SWAP1 SWAP2 KECCAK256 PUSH1 0x4 SWAP1 SWAP2 MUL ADD PUSH1 0x3 DUP2 ADD SLOAD SWAP1 SWAP2 POP PUSH1 0xFF AND ISZERO PUSH2 0x2E5 JUMPI PUSH1 0x40 MLOAD PUSH3 0x461BCD PUSH1 0xE5 SHL DUP2 MSTORE PUSH1 0x20 PUSH1 0x4 DUP3 ADD MSTORE PUSH1 0x11 PUSH1 0x24 DUP3 ADD MSTORE PUSH17 0x20B63932B0B23C903BB4BA34323930BBB7 PUSH1 0x79 SHL PUSH1 0x44 DUP3 ADD MSTORE PUSH1 0x64 ADD PUSH2 0x25F JUMP JUMPDEST DUP1 SLOAD PUSH2 0x326 JUMPI PUSH1 0x40 MLOAD PUSH3 0x461BCD PUSH1 0xE5 SHL DUP2 MSTORE PUSH1 0x20 PUSH1 0x4 DUP3 ADD MSTORE PUSH1 0x10 PUSH1 0x24 DUP3 ADD MSTORE PUSH16 0x139BC819195C1BDCDA5D08199BDD5B99 PUSH1 0x82 SHL PUSH1 0x44 DUP3 ADD MSTORE PUSH1 0x64 ADD PUSH2 0x25F JUMP JUMPDEST DUP1 SLOAD PUSH1 0x2 DUP3 ADD SLOAD PUSH1 0x0 SWAP1 TIMESTAMP LT DUP1 ISZERO PUSH2 0x425 JUMPI PUSH1 0x64 PUSH1 0x3 SLOAD DUP5 PUSH2 0x348 SWAP2 SWAP1 PUSH2 0xCF1 JUMP JUMPDEST PUSH2 0x352 SWAP2 SWAP1 PUSH2 0xD0E JUMP JUMPDEST SWAP2 POP PUSH2 0x35E DUP3 DUP5 PUSH2 0xD30 JUMP JUMPDEST SWAP3 POP PUSH1 0x0 PUSH32 0x0 PUSH1 0x1 PUSH1 0x1 PUSH1 0xA0 SHL SUB AND DUP4 PUSH1 0x40 MLOAD PUSH1 0x0 PUSH1 0x40 MLOAD DUP1 DUP4 SUB DUP2 DUP6 DUP8 GAS CALL SWAP3 POP POP POP RETURNDATASIZE DUP1 PUSH1 0x0 DUP2 EQ PUSH2 0x3CD JUMPI PUSH1 0x40 MLOAD SWAP2 POP PUSH1 0x1F NOT PUSH1 0x3F RETURNDATASIZE ADD AND DUP3 ADD PUSH1 0x40 MSTORE RETURNDATASIZE DUP3 MSTORE RETURNDATASIZE PUSH1 0x0 PUSH1 0x20 DUP5 ADD RETURNDATACOPY PUSH2 0x3D2 JUMP JUMPDEST PUSH1 0x60 SWAP2 POP JUMPDEST POP POP SWAP1 POP DUP1 PUSH2 0x423 JUMPI PUSH1 0x40 MLOAD PUSH3 0x461BCD PUSH1 0xE5 SHL DUP2 MSTORE PUSH1 0x20 PUSH1 0x4 DUP3 ADD MSTORE PUSH1 0x17 PUSH1 0x24 DUP3 ADD MSTORE PUSH32 0x50656E616C7479207472616E73666572206661696C6564000000000000000000 PUSH1 0x44 DUP3 ADD MSTORE PUSH1 0x64 ADD PUSH2 0x25F JUMP JUMPDEST POP JUMPDEST PUSH1 0x3 DUP5 ADD DUP1 SLOAD PUSH1 0xFF NOT AND PUSH1 0x1 OR SWAP1 SSTORE PUSH1 0x40 MLOAD PUSH1 0x0 SWAP1 CALLER SWAP1 DUP6 SWAP1 DUP4 DUP2 DUP2 DUP2 DUP6 DUP8 GAS CALL SWAP3 POP POP POP RETURNDATASIZE DUP1 PUSH1 0x0 DUP2 EQ PUSH2 0x476 JUMPI PUSH1 0x40 MLOAD SWAP2 POP PUSH1 0x1F NOT PUSH1 0x3F RETURNDATASIZE ADD AND DUP3 ADD PUSH1 0x40 MSTORE RETURNDATASIZE DUP3 MSTORE RETURNDATASIZE PUSH1 0x0 PUSH1 0x20 DUP5 ADD RETURNDATACOPY PUSH2 0x47B JUMP JUMPDEST PUSH1 0x60 SWAP2 POP JUMPDEST POP POP SWAP1 POP DUP1 PUSH2 0x4BE JUMPI PUSH1 0x40 MLOAD PUSH3 0x461BCD PUSH1 0xE5 SHL DUP2 MSTORE PUSH1 0x20 PUSH1 0x4 DUP3 ADD MSTORE PUSH1 0xF PUSH1 0x24 DUP3 ADD MSTORE PUSH15 0x151C985B9CD9995C8819985A5B1959 PUSH1 0x8A SHL PUSH1 0x44 DUP3 ADD MSTORE PUSH1 0x64 ADD PUSH2 0x25F JUMP JUMPDEST PUSH1 0x40 DUP1 MLOAD DUP6 DUP2 MSTORE DUP4 ISZERO ISZERO PUSH1 0x20 DUP3 ADD MSTORE SWAP1 DUP2 ADD DUP5 SWAP1 MSTORE CALLER SWAP1 PUSH32 0xA37F81DA89FC35EA95622BEA587259B7DB5758C134BB3F0B4B8321CBEA6679D7 SWAP1 PUSH1 0x60 ADD PUSH1 0x40 MLOAD DUP1 SWAP2 SUB SWAP1 LOG2 POP POP POP POP POP PUSH2 0x511 PUSH1 0x1 PUSH1 0x0 SSTORE JUMP JUMPDEST POP JUMP JUMPDEST CALLER PUSH1 0x0 SWAP1 DUP2 MSTORE PUSH1 0x2 PUSH1 0x20 SWAP1 DUP2 MSTORE PUSH1 0x40 DUP1 DUP4 KECCAK256 DUP1 SLOAD DUP3 MLOAD DUP2 DUP6 MUL DUP2 ADD DUP6 ADD SWAP1 SWAP4 MSTORE DUP1 DUP4 MSTORE PUSH1 0x60 SWAP5 SWAP3 SWAP4 SWAP2 SWAP3 SWAP1 SWAP2 DUP5 ADD JUMPDEST DUP3 DUP3 LT ISZERO PUSH2 0x630 JUMPI DUP4 DUP3 SWAP1 PUSH1 0x0 MSTORE PUSH1 0x20 PUSH1 0x0 KECCAK256 SWAP1 PUSH1 0x4 MUL ADD PUSH1 0x40 MLOAD DUP1 PUSH1 0x80 ADD PUSH1 0x40 MSTORE SWAP1 DUP2 PUSH1 0x0 DUP3 ADD SLOAD DUP2 MSTORE PUSH1 0x20 ADD PUSH1 0x1 DUP3 ADD DUP1 SLOAD PUSH2 0x580 SWAP1 PUSH2 0xD43 JUMP JUMPDEST DUP1 PUSH1 0x1F ADD PUSH1 0x20 DUP1 SWAP2 DIV MUL PUSH1 0x20 ADD PUSH1 0x40 MLOAD SWAP1 DUP2 ADD PUSH1 0x40 MSTORE DUP1 SWAP3 SWAP2 SWAP1 DUP2 DUP2 MSTORE PUSH1 0x20 ADD DUP3 DUP1 SLOAD PUSH2 0x5AC SWAP1 PUSH2 0xD43 JUMP JUMPDEST DUP1 ISZERO PUSH2 0x5F9 JUMPI DUP1 PUSH1 0x1F LT PUSH2 0x5CE JUMPI PUSH2 0x100 DUP1 DUP4 SLOAD DIV MUL DUP4 MSTORE SWAP2 PUSH1 0x20 ADD SWAP2 PUSH2 0x5F9 JUMP JUMPDEST DUP3 ADD SWAP2 SWAP1 PUSH1 0x0 MSTORE PUSH1 0x20 PUSH1 0x0 KECCAK256 SWAP1 JUMPDEST DUP2 SLOAD DUP2 MSTORE SWAP1 PUSH1 0x1 ADD SWAP1 PUSH1 0x20 ADD DUP1 DUP4 GT PUSH2 0x5DC JUMPI DUP3 SWAP1 SUB PUSH1 0x1F AND DUP3 ADD SWAP2 JUMPDEST POP POP POP SWAP2 DUP4 MSTORE POP POP PUSH1 0x2 DUP3 ADD SLOAD PUSH1 0x20 DUP1 DUP4 ADD SWAP2 SWAP1 SWAP2 MSTORE PUSH1 0x3 SWAP1 SWAP3 ADD SLOAD PUSH1 0xFF AND ISZERO ISZERO PUSH1 0x40 SWAP1 SWAP2 ADD MSTORE SWAP1 DUP3 MSTORE PUSH1 0x1 SWAP3 SWAP1 SWAP3 ADD SWAP2 ADD PUSH2 0x543 JUMP JUMPDEST POP POP POP POP SWAP1 POP SWAP1 JUMP JUMPDEST PUSH2 0x641 PUSH2 0x9F6 JUMP JUMPDEST PUSH2 0x64B PUSH1 0x0 PUSH2 0xA23 JUMP JUMPDEST JUMP JUMPDEST PUSH2 0x655 PUSH2 0x9CC JUMP JUMPDEST PUSH1 0x0 CALLVALUE GT PUSH2 0x6B3 JUMPI PUSH1 0x40 MLOAD PUSH3 0x461BCD PUSH1 0xE5 SHL DUP2 MSTORE PUSH1 0x20 PUSH1 0x4 DUP3 ADD MSTORE PUSH1 0x25 PUSH1 0x24 DUP3 ADD MSTORE PUSH32 0x4465706F73697420616D6F756E74206D75737420626520677265617465722074 PUSH1 0x44 DUP3 ADD MSTORE PUSH5 0x68616E203 PUSH1 0xDC SHL PUSH1 0x64 DUP3 ADD MSTORE PUSH1 0x84 ADD PUSH2 0x25F JUMP JUMPDEST TIMESTAMP DUP2 GT PUSH2 0x70E JUMPI PUSH1 0x40 MLOAD PUSH3 0x461BCD PUSH1 0xE5 SHL DUP2 MSTORE PUSH1 0x20 PUSH1 0x4 DUP3 ADD MSTORE PUSH1 0x23 PUSH1 0x24 DUP3 ADD MSTORE PUSH32 0x4D617475726974792064617465206D75737420626520696E2074686520667574 PUSH1 0x44 DUP3 ADD MSTORE PUSH3 0x757265 PUSH1 0xE8 SHL PUSH1 0x64 DUP3 ADD MSTORE PUSH1 0x84 ADD PUSH2 0x25F JUMP JUMPDEST PUSH1 0x0 DUP3 MLOAD GT PUSH2 0x758 JUMPI PUSH1 0x40 MLOAD PUSH3 0x461BCD PUSH1 0xE5 SHL DUP2 MSTORE PUSH1 0x20 PUSH1 0x4 DUP3 ADD MSTORE PUSH1 0x16 PUSH1 0x24 DUP3 ADD MSTORE PUSH22 0x526561736F6E2063616E6E6F7420626520656D707479 PUSH1 0x50 SHL PUSH1 0x44 DUP3 ADD MSTORE PUSH1 0x64 ADD PUSH2 0x25F JUMP JUMPDEST CALLER PUSH1 0x0 SWAP1 DUP2 MSTORE PUSH1 0x2 PUSH1 0x20 SWAP1 DUP2 MSTORE PUSH1 0x40 DUP1 DUP4 KECCAK256 DUP1 SLOAD DUP3 MLOAD PUSH1 0x80 DUP2 ADD DUP5 MSTORE CALLVALUE DUP2 MSTORE DUP1 DUP6 ADD DUP9 DUP2 MSTORE SWAP4 DUP2 ADD DUP8 SWAP1 MSTORE PUSH1 0x60 DUP2 ADD DUP7 SWAP1 MSTORE PUSH1 0x1 DUP1 DUP4 ADD DUP5 SSTORE SWAP3 DUP7 MSTORE SWAP4 SWAP1 SWAP5 KECCAK256 DUP4 MLOAD PUSH1 0x4 DUP7 MUL SWAP1 SWAP2 ADD SWAP1 DUP2 SSTORE SWAP2 MLOAD SWAP1 DUP3 ADD SWAP1 PUSH2 0x7B4 SWAP1 DUP3 PUSH2 0xDCC JUMP JUMPDEST POP PUSH1 0x40 DUP3 DUP2 ADD MLOAD PUSH1 0x2 DUP4 ADD SSTORE PUSH1 0x60 SWAP1 SWAP3 ADD MLOAD PUSH1 0x3 SWAP1 SWAP2 ADD DUP1 SLOAD PUSH1 0xFF NOT AND SWAP2 ISZERO ISZERO SWAP2 SWAP1 SWAP2 OR SWAP1 SSTORE MLOAD CALLER SWAP1 PUSH32 0x66DF69957CEB18B43D8949C4D413CF8DD7FE95185032E6A80CF704530E04374B SWAP1 PUSH2 0x810 SWAP1 CALLVALUE SWAP1 DUP8 SWAP1 DUP8 SWAP1 DUP8 SWAP1 PUSH2 0xE8C JUMP JUMPDEST PUSH1 0x40 MLOAD DUP1 SWAP2 SUB SWAP1 LOG2 POP PUSH2 0x823 PUSH1 0x1 PUSH1 0x0 SSTORE JUMP JUMPDEST POP POP JUMP JUMPDEST PUSH2 0x82F PUSH2 0x9F6 JUMP JUMPDEST PUSH1 0x14 DUP2 GT ISZERO PUSH2 0x873 JUMPI PUSH1 0x40 MLOAD PUSH3 0x461BCD PUSH1 0xE5 SHL DUP2 MSTORE PUSH1 0x20 PUSH1 0x4 DUP3 ADD MSTORE PUSH1 0x10 PUSH1 0x24 DUP3 ADD MSTORE PUSH16 0xA0CADCC2D8E8F240E8DEDE40D0D2CED PUSH1 0x83 SHL PUSH1 0x44 DUP3 ADD MSTORE PUSH1 0x64 ADD PUSH2 0x25F JUMP JUMPDEST PUSH1 0x3 DUP1 SLOAD SWAP1 DUP3 SWAP1 SSTORE PUSH1 0x40 DUP1 MLOAD DUP3 DUP2 MSTORE PUSH1 0x20 DUP2 ADD DUP5 SWAP1 MSTORE PUSH32 0xDD20540E487A8668A900C5089D9E5D2CB4CB734EEF8E75A3A4842CE04AC79D9D SWAP2 ADD PUSH1 0x40 MLOAD DUP1 SWAP2 SUB SWAP1 LOG1 POP POP JUMP JUMPDEST PUSH1 0x2 PUSH1 0x20 MSTORE DUP2 PUSH1 0x0 MSTORE PUSH1 0x40 PUSH1 0x0 KECCAK256 DUP2 DUP2 SLOAD DUP2 LT PUSH2 0x8D4 JUMPI PUSH1 0x0 DUP1 REVERT JUMPDEST SWAP1 PUSH1 0x0 MSTORE PUSH1 0x20 PUSH1 0x0 KECCAK256 SWAP1 PUSH1 0x4 MUL ADD PUSH1 0x0 SWAP2 POP SWAP2 POP POP DUP1 PUSH1 0x0 ADD SLOAD SWAP1 DUP1 PUSH1 0x1 ADD DUP1 SLOAD PUSH2 0x8FE SWAP1 PUSH2 0xD43 JUMP JUMPDEST DUP1 PUSH1 0x1F ADD PUSH1 0x20 DUP1 SWAP2 DIV MUL PUSH1 0x20 ADD PUSH1 0x40 MLOAD SWAP1 DUP2 ADD PUSH1 0x40 MSTORE DUP1 SWAP3 SWAP2 SWAP1 DUP2 DUP2 MSTORE PUSH1 0x20 ADD DUP3 DUP1 SLOAD PUSH2 0x92A SWAP1 PUSH2 0xD43 JUMP JUMPDEST DUP1 ISZERO PUSH2 0x977 JUMPI DUP1 PUSH1 0x1F LT PUSH2 0x94C JUMPI PUSH2 0x100 DUP1 DUP4 SLOAD DIV MUL DUP4 MSTORE SWAP2 PUSH1 0x20 ADD SWAP2 PUSH2 0x977 JUMP JUMPDEST DUP3 ADD SWAP2 SWAP1 PUSH1 0x0 MSTORE PUSH1 0x20 PUSH1 0x0 KECCAK256 SWAP1 JUMPDEST DUP2 SLOAD DUP2 MSTORE SWAP1 PUSH1 0x1 ADD SWAP1 PUSH1 0x20 ADD DUP1 DUP4 GT PUSH2 0x95A JUMPI DUP3 SWAP1 SUB PUSH1 0x1F AND DUP3 ADD SWAP2 JUMPDEST POP POP POP POP PUSH1 0x2 DUP4 ADD SLOAD PUSH1 0x3 SWAP1 SWAP4 ADD SLOAD SWAP2 SWAP3 SWAP2 PUSH1 0xFF AND SWAP1 POP DUP5 JUMP JUMPDEST PUSH2 0x999 PUSH2 0x9F6 JUMP JUMPDEST PUSH1 0x1 PUSH1 0x1 PUSH1 0xA0 SHL SUB DUP2 AND PUSH2 0x9C3 JUMPI PUSH1 0x40 MLOAD PUSH4 0x1E4FBDF7 PUSH1 0xE0 SHL DUP2 MSTORE PUSH1 0x0 PUSH1 0x4 DUP3 ADD MSTORE PUSH1 0x24 ADD PUSH2 0x25F JUMP JUMPDEST PUSH2 0x511 DUP2 PUSH2 0xA23 JUMP JUMPDEST PUSH1 0x2 PUSH1 0x0 SLOAD SUB PUSH2 0x9EF JUMPI PUSH1 0x40 MLOAD PUSH4 0x3EE5AEB5 PUSH1 0xE0 SHL DUP2 MSTORE PUSH1 0x4 ADD PUSH1 0x40 MLOAD DUP1 SWAP2 SUB SWAP1 REVERT JUMPDEST PUSH1 0x2 PUSH1 0x0 SSTORE JUMP JUMPDEST PUSH1 0x1 SLOAD PUSH1 0x1 PUSH1 0x1 PUSH1 0xA0 SHL SUB AND CALLER EQ PUSH2 0x64B JUMPI PUSH1 0x40 MLOAD PUSH4 0x118CDAA7 PUSH1 0xE0 SHL DUP2 MSTORE CALLER PUSH1 0x4 DUP3 ADD MSTORE PUSH1 0x24 ADD PUSH2 0x25F JUMP JUMPDEST PUSH1 0x1 DUP1 SLOAD PUSH1 0x1 PUSH1 0x1 PUSH1 0xA0 SHL SUB DUP4 DUP2 AND PUSH1 0x1 PUSH1 0x1 PUSH1 0xA0 SHL SUB NOT DUP4 AND DUP2 OR SWAP1 SWAP4 SSTORE PUSH1 0x40 MLOAD SWAP2 AND SWAP2 SWAP1 DUP3 SWAP1 PUSH32 0x8BE0079C531659141344CD1FD0A4F28419497F9722A3DAAFE3B4186F6B6457E0 SWAP1 PUSH1 0x0 SWAP1 LOG3 POP POP JUMP JUMPDEST PUSH1 0x0 PUSH1 0x20 DUP3 DUP5 SUB SLT ISZERO PUSH2 0xA87 JUMPI PUSH1 0x0 DUP1 REVERT JUMPDEST POP CALLDATALOAD SWAP2 SWAP1 POP JUMP JUMPDEST PUSH1 0x0 DUP2 MLOAD DUP1 DUP5 MSTORE PUSH1 0x0 JUMPDEST DUP2 DUP2 LT ISZERO PUSH2 0xAB4 JUMPI PUSH1 0x20 DUP2 DUP6 ADD DUP2 ADD MLOAD DUP7 DUP4 ADD DUP3 ADD MSTORE ADD PUSH2 0xA98 JUMP JUMPDEST POP PUSH1 0x0 PUSH1 0x20 DUP3 DUP7 ADD ADD MSTORE PUSH1 0x20 PUSH1 0x1F NOT PUSH1 0x1F DUP4 ADD AND DUP6 ADD ADD SWAP2 POP POP SWAP3 SWAP2 POP POP JUMP JUMPDEST PUSH1 0x0 PUSH1 0x20 DUP1 DUP4 ADD DUP2 DUP5 MSTORE DUP1 DUP6 MLOAD DUP1 DUP4 MSTORE PUSH1 0x40 SWAP3 POP DUP3 DUP7 ADD SWAP2 POP DUP3 DUP2 PUSH1 0x5 SHL DUP8 ADD ADD DUP5 DUP9 ADD PUSH1 0x0 JUMPDEST DUP4 DUP2 LT ISZERO PUSH2 0xB53 JUMPI PUSH1 0x3F NOT DUP10 DUP5 SUB ADD DUP6 MSTORE DUP2 MLOAD PUSH1 0x80 DUP2 MLOAD DUP6 MSTORE DUP9 DUP3 ADD MLOAD DUP2 DUP11 DUP8 ADD MSTORE PUSH2 0xB29 DUP3 DUP8 ADD DUP3 PUSH2 0xA8E JUMP JUMPDEST DUP4 DUP11 ADD MLOAD DUP8 DUP12 ADD MSTORE PUSH1 0x60 SWAP4 DUP5 ADD MLOAD ISZERO ISZERO SWAP4 SWAP1 SWAP7 ADD SWAP3 SWAP1 SWAP3 MSTORE POP POP SWAP4 DUP7 ADD SWAP4 SWAP1 DUP7 ADD SWAP1 PUSH1 0x1 ADD PUSH2 0xAFB JUMP JUMPDEST POP SWAP1 SWAP9 SWAP8 POP POP POP POP POP POP POP POP JUMP JUMPDEST PUSH4 0x4E487B71 PUSH1 0xE0 SHL PUSH1 0x0 MSTORE PUSH1 0x41 PUSH1 0x4 MSTORE PUSH1 0x24 PUSH1 0x0 REVERT JUMPDEST PUSH1 0x0 DUP1 PUSH1 0x40 DUP4 DUP6 SUB SLT ISZERO PUSH2 0xB8A JUMPI PUSH1 0x0 DUP1 REVERT JUMPDEST DUP3 CALLDATALOAD PUSH8 0xFFFFFFFFFFFFFFFF DUP1 DUP3 GT ISZERO PUSH2 0xBA2 JUMPI PUSH1 0x0 DUP1 REVERT JUMPDEST DUP2 DUP6 ADD SWAP2 POP DUP6 PUSH1 0x1F DUP4 ADD SLT PUSH2 0xBB6 JUMPI PUSH1 0x0 DUP1 REVERT JUMPDEST DUP2 CALLDATALOAD DUP2 DUP2 GT ISZERO PUSH2 0xBC8 JUMPI PUSH2 0xBC8 PUSH2 0xB61 JUMP JUMPDEST PUSH1 0x40 MLOAD PUSH1 0x1F DUP3 ADD PUSH1 0x1F NOT SWAP1 DUP2 AND PUSH1 0x3F ADD AND DUP2 ADD SWAP1 DUP4 DUP3 GT DUP2 DUP4 LT OR ISZERO PUSH2 0xBF0 JUMPI PUSH2 0xBF0 PUSH2 0xB61 JUMP JUMPDEST DUP2 PUSH1 0x40 MSTORE DUP3 DUP2 MSTORE DUP9 PUSH1 0x20 DUP5 DUP8 ADD ADD GT ISZERO PUSH2 0xC09 JUMPI PUSH1 0x0 DUP1 REVERT JUMPDEST DUP3 PUSH1 0x20 DUP7 ADD PUSH1 0x20 DUP4 ADD CALLDATACOPY PUSH1 0x0 PUSH1 0x20 SWAP4 DUP3 ADD DUP5 ADD MSTORE SWAP9 SWAP7 SWAP1 SWAP2 ADD CALLDATALOAD SWAP7 POP POP POP POP POP POP JUMP JUMPDEST DUP1 CALLDATALOAD PUSH1 0x1 PUSH1 0x1 PUSH1 0xA0 SHL SUB DUP2 AND DUP2 EQ PUSH2 0xC43 JUMPI PUSH1 0x0 DUP1 REVERT JUMPDEST SWAP2 SWAP1 POP JUMP JUMPDEST PUSH1 0x0 DUP1 PUSH1 0x40 DUP4 DUP6 SUB SLT ISZERO PUSH2 0xC5B JUMPI PUSH1 0x0 DUP1 REVERT JUMPDEST PUSH2 0xC64 DUP4 PUSH2 0xC2C JUMP JUMPDEST SWAP5 PUSH1 0x20 SWAP4 SWAP1 SWAP4 ADD CALLDATALOAD SWAP4 POP POP POP JUMP JUMPDEST DUP5 DUP2 MSTORE PUSH1 0x80 PUSH1 0x20 DUP3 ADD MSTORE PUSH1 0x0 PUSH2 0xC8B PUSH1 0x80 DUP4 ADD DUP7 PUSH2 0xA8E JUMP JUMPDEST PUSH1 0x40 DUP4 ADD SWAP5 SWAP1 SWAP5 MSTORE POP SWAP1 ISZERO ISZERO PUSH1 0x60 SWAP1 SWAP2 ADD MSTORE SWAP3 SWAP2 POP POP JUMP JUMPDEST PUSH1 0x0 PUSH1 0x20 DUP3 DUP5 SUB SLT ISZERO PUSH2 0xCB5 JUMPI PUSH1 0x0 DUP1 REVERT JUMPDEST PUSH2 0xCBE DUP3 PUSH2 0xC2C JUMP JUMPDEST SWAP4 SWAP3 POP POP POP JUMP JUMPDEST PUSH4 0x4E487B71 PUSH1 0xE0 SHL PUSH1 0x0 MSTORE PUSH1 0x32 PUSH1 0x4 MSTORE PUSH1 0x24 PUSH1 0x0 REVERT JUMPDEST PUSH4 0x4E487B71 PUSH1 0xE0 SHL PUSH1 0x0 MSTORE PUSH1 0x11 PUSH1 0x4 MSTORE PUSH1 0x24 PUSH1 0x0 REVERT JUMPDEST DUP1 DUP3 MUL DUP2 ISZERO DUP3 DUP3 DIV DUP5 EQ OR PUSH2 0xD08 JUMPI PUSH2 0xD08 PUSH2 0xCDB JUMP JUMPDEST SWAP3 SWAP2 POP POP JUMP JUMPDEST PUSH1 0x0 DUP3 PUSH2 0xD2B JUMPI PUSH4 0x4E487B71 PUSH1 0xE0 SHL PUSH1 0x0 MSTORE PUSH1 0x12 PUSH1 0x4 MSTORE PUSH1 0x24 PUSH1 0x0 REVERT JUMPDEST POP DIV SWAP1 JUMP JUMPDEST DUP2 DUP2 SUB DUP2 DUP2 GT ISZERO PUSH2 0xD08 JUMPI PUSH2 0xD08 PUSH2 0xCDB JUMP JUMPDEST PUSH1 0x1 DUP2 DUP2 SHR SWAP1 DUP3 AND DUP1 PUSH2 0xD57 JUMPI PUSH1 0x7F DUP3 AND SWAP2 POP JUMPDEST PUSH1 0x20 DUP3 LT DUP2 SUB PUSH2 0xD77 JUMPI PUSH4 0x4E487B71 PUSH1 0xE0 SHL PUSH1 0x0 MSTORE PUSH1 0x22 PUSH1 0x4 MSTORE PUSH1 0x24 PUSH1 0x0 REVERT JUMPDEST POP SWAP2 SWAP1 POP JUMP JUMPDEST PUSH1 0x1F DUP3 GT ISZERO PUSH2 0xDC7 JUMPI PUSH1 0x0 DUP2 DUP2 MSTORE PUSH1 0x20 DUP2 KECCAK256 PUSH1 0x1F DUP6 ADD PUSH1 0x5 SHR DUP2 ADD PUSH1 0x20 DUP7 LT ISZERO PUSH2 0xDA4 JUMPI POP DUP1 JUMPDEST PUSH1 0x1F DUP6 ADD PUSH1 0x5 SHR DUP3 ADD SWAP2 POP JUMPDEST DUP2 DUP2 LT ISZERO PUSH2 0xDC3 JUMPI DUP3 DUP2 SSTORE PUSH1 0x1 ADD PUSH2 0xDB0 JUMP JUMPDEST POP POP POP JUMPDEST POP POP POP JUMP JUMPDEST DUP2 MLOAD PUSH8 0xFFFFFFFFFFFFFFFF DUP2 GT ISZERO PUSH2 0xDE6 JUMPI PUSH2 0xDE6 PUSH2 0xB61 JUMP JUMPDEST PUSH2 0xDFA DUP2 PUSH2 0xDF4 DUP5 SLOAD PUSH2 0xD43 JUMP JUMPDEST DUP5 PUSH2 0xD7D JUMP JUMPDEST PUSH1 0x20 DUP1 PUSH1 0x1F DUP4 GT PUSH1 0x1 DUP2 EQ PUSH2 0xE2F JUMPI PUSH1 0x0 DUP5 ISZERO PUSH2 0xE17 JUMPI POP DUP6 DUP4 ADD MLOAD JUMPDEST PUSH1 0x0 NOT PUSH1 0x3 DUP7 SWAP1 SHL SHR NOT AND PUSH1 0x1 DUP6 SWAP1 SHL OR DUP6 SSTORE PUSH2 0xDC3 JUMP JUMPDEST PUSH1 0x0 DUP6 DUP2 MSTORE PUSH1 0x20 DUP2 KECCAK256 PUSH1 0x1F NOT DUP7 AND SWAP2 JUMPDEST DUP3 DUP2 LT ISZERO PUSH2 0xE5E JUMPI DUP9 DUP7 ADD MLOAD DUP3 SSTORE SWAP5 DUP5 ADD SWAP5 PUSH1 0x1 SWAP1 SWAP2 ADD SWAP1 DUP5 ADD PUSH2 0xE3F JUMP JUMPDEST POP DUP6 DUP3 LT ISZERO PUSH2 0xE7C JUMPI DUP8 DUP6 ADD MLOAD PUSH1 0x0 NOT PUSH1 0x3 DUP9 SWAP1 SHL PUSH1 0xF8 AND SHR NOT AND DUP2 SSTORE JUMPDEST POP POP POP POP POP PUSH1 0x1 SWAP1 DUP2 SHL ADD SWAP1 SSTORE POP JUMP JUMPDEST DUP5 DUP2 MSTORE PUSH1 0x80 PUSH1 0x20 DUP3 ADD MSTORE PUSH1 0x0 PUSH2 0xEA5 PUSH1 0x80 DUP4 ADD DUP7 PUSH2 0xA8E JUMP JUMPDEST PUSH1 0x40 DUP4 ADD SWAP5 SWAP1 SWAP5 MSTORE POP PUSH1 0x60 ADD MSTORE SWAP3 SWAP2 POP POP JUMP INVALID LOG2 PUSH5 0x6970667358 0x22 SLT KECCAK256 LT 0x25 0xE 0x4F PUSH26 0xDF4979725D5065CE87B060594CC8C66ADFFECE3FD3D550410D05 STOP PUSH5 0x736F6C6343 STOP ADDMOD EQ STOP CALLER "},"methodIdentifiers":{"deposit(string,uint256)":"8e27d719","deposits(address,uint256)":"d6d68177","earlyWithdrawalPenalty()":"291a3d9e","getDeposits()":"6b149d87","owner()":"8da5cb5b","penaltiesWallet()":"474ee081","renounceOwnership()":"715018a6","setPenaltyRate(uint256)":"a1bab447","transferOwnership(address)":"f2fde38b","withdraw(uint256)":"2e1a7d4d"}}}}}