{
  "_format": "hh-sol-artifact-1",
  "contractName": "TimeLockSavings",
  "sourceName": "contracts/TimeLockSavings.sol",
  "abi": [
    {
      "inputs": [],
      "stateMutability": "nonpayable",
      "type": "constructor"
    },
    {
      "inputs": [
        {
          "internalType": "address",
          "name": "owner",
          "type": "address"
        }
      ],
      "name": "OwnableInvalidOwner",
      "type": "error"
    },
    {
      "inputs": [
        {
          "internalType": "address",
          "name": "account",
          "type": "address"
        }
      ],
      "name": "OwnableUnauthorizedAccount",
      "type": "error"
    },
    {
      "inputs": [],
      "name": "ReentrancyGuardReentrantCall",
      "type": "error"
    },
    {
      "anonymous": false,
      "inputs": [
        {
          "indexed": true,
          "internalType": "address",
          "name": "depositor",
          "type": "address"
        },
        {
          "indexed": false,
          "internalType": "uint256",
          "name": "amount",
          "type": "uint256"
        },
        {
          "indexed": false,
          "internalType": "uint256",
          "name": "lockTime",
          "type": "uint256"
        }
      ],
      "name": "DepositMade",
      "type": "event"
    },
    {
      "anonymous": false,
      "inputs": [
        {
          "indexed": true,
          "internalType": "address",
          "name": "previousOwner",
          "type": "address"
        },
        {
          "indexed": true,
          "internalType": "address",
          "name": "newOwner",
          "type": "address"
        }
      ],
      "name": "OwnershipTransferred",
      "type": "event"
    },
    {
      "anonymous": false,
      "inputs": [
        {
          "indexed": true,
          "internalType": "address",
          "name": "depositor",
          "type": "address"
        },
        {
          "indexed": false,
          "internalType": "uint256",
          "name": "amount",
          "type": "uint256"
        },
        {
          "indexed": false,
          "internalType": "bool",
          "name": "early",
          "type": "bool"
        }
      ],
      "name": "WithdrawalMade",
      "type": "event"
    },
    {
      "inputs": [
        {
          "internalType": "uint256",
          "name": "_lockDuration",
          "type": "uint256"
        }
      ],
      "name": "deposit",
      "outputs": [],
      "stateMutability": "payable",
      "type": "function"
    },
    {
      "inputs": [
        {
          "internalType": "address",
          "name": "",
          "type": "address"
        },
        {
          "internalType": "uint256",
          "name": "",
          "type": "uint256"
        }
      ],
      "name": "deposits",
      "outputs": [
        {
          "internalType": "uint256",
          "name": "amount",
          "type": "uint256"
        },
        {
          "internalType": "uint256",
          "name": "lockTime",
          "type": "uint256"
        },
        {
          "internalType": "bool",
          "name": "withdrawn",
          "type": "bool"
        }
      ],
      "stateMutability": "view",
      "type": "function"
    },
    {
      "inputs": [],
      "name": "earlyWithdrawalPenalty",
      "outputs": [
        {
          "internalType": "uint256",
          "name": "",
          "type": "uint256"
        }
      ],
      "stateMutability": "view",
      "type": "function"
    },
    {
      "inputs": [],
      "name": "getDeposits",
      "outputs": [
        {
          "components": [
            {
              "internalType": "uint256",
              "name": "amount",
              "type": "uint256"
            },
            {
              "internalType": "uint256",
              "name": "lockTime",
              "type": "uint256"
            },
            {
              "internalType": "bool",
              "name": "withdrawn",
              "type": "bool"
            }
          ],
          "internalType": "struct TimeLockSavings.Deposit[]",
          "name": "",
          "type": "tuple[]"
        }
      ],
      "stateMutability": "view",
      "type": "function"
    },
    {
      "inputs": [],
      "name": "owner",
      "outputs": [
        {
          "internalType": "address",
          "name": "",
          "type": "address"
        }
      ],
      "stateMutability": "view",
      "type": "function"
    },
    {
      "inputs": [],
      "name": "renounceOwnership",
      "outputs": [],
      "stateMutability": "nonpayable",
      "type": "function"
    },
    {
      "inputs": [
        {
          "internalType": "uint256",
          "name": "_newPenalty",
          "type": "uint256"
        }
      ],
      "name": "setPenalty",
      "outputs": [],
      "stateMutability": "nonpayable",
      "type": "function"
    },
    {
      "inputs": [
        {
          "internalType": "address",
          "name": "newOwner",
          "type": "address"
        }
      ],
      "name": "transferOwnership",
      "outputs": [],
      "stateMutability": "nonpayable",
      "type": "function"
    },
    {
      "inputs": [
        {
          "internalType": "uint256",
          "name": "_depositIndex",
          "type": "uint256"
        }
      ],
      "name": "withdraw",
      "outputs": [],
      "stateMutability": "nonpayable",
      "type": "function"
    }
  ],
  "bytecode": "0x6080604052600a60035534801561001557600080fd5b50336001600081905550600073ffffffffffffffffffffffffffffffffffffffff168173ffffffffffffffffffffffffffffffffffffffff16036100915760006040517f1e4fbdf700000000000000000000000000000000000000000000000000000000815260040161008891906101ad565b60405180910390fd5b6100a0816100a660201b60201c565b506101c8565b6000600160009054906101000a900473ffffffffffffffffffffffffffffffffffffffff16905081600160006101000a81548173ffffffffffffffffffffffffffffffffffffffff021916908373ffffffffffffffffffffffffffffffffffffffff1602179055508173ffffffffffffffffffffffffffffffffffffffff168173ffffffffffffffffffffffffffffffffffffffff167f8be0079c531659141344cd1fd0a4f28419497f9722a3daafe3b4186f6b6457e060405160405180910390a35050565b600073ffffffffffffffffffffffffffffffffffffffff82169050919050565b60006101978261016c565b9050919050565b6101a78161018c565b82525050565b60006020820190506101c2600083018461019e565b92915050565b611009806101d76000396000f3fe6080604052600436106100865760003560e01c8063715018a611610059578063715018a6146101335780638da5cb5b1461014a578063b6b55f2514610175578063d6d6817714610191578063f2fde38b146101d057610086565b8063291a3d9e1461008b5780632e1a7d4d146100b65780634a4b674a146100df5780636b149d8714610108575b600080fd5b34801561009757600080fd5b506100a06101f9565b6040516100ad9190610967565b60405180910390f35b3480156100c257600080fd5b506100dd60048036038101906100d891906109b3565b6101ff565b005b3480156100eb57600080fd5b50610106600480360381019061010191906109b3565b61040d565b005b34801561011457600080fd5b5061011d610463565b60405161012a9190610afb565b60405180910390f35b34801561013f57600080fd5b5061014861052e565b005b34801561015657600080fd5b5061015f610542565b60405161016c9190610b5e565b60405180910390f35b61018f600480360381019061018a91906109b3565b61056c565b005b34801561019d57600080fd5b506101b860048036038101906101b39190610ba5565b6106cf565b6040516101c793929190610bf4565b60405180910390f35b3480156101dc57600080fd5b506101f760048036038101906101f29190610c2b565b610723565b005b60035481565b6102076107a9565b6000600260003373ffffffffffffffffffffffffffffffffffffffff1673ffffffffffffffffffffffffffffffffffffffff168152602001908152602001600020828154811061025a57610259610c58565b5b906000526020600020906003020190508060020160009054906101000a900460ff16156102bc576040517f08c379a00000000000000000000000000000000000000000000000000000000081526004016102b390610ce4565b60405180910390fd5b6000816000015411610303576040517f08c379a00000000000000000000000000000000000000000000000000000000081526004016102fa90610d50565b60405180910390fd5b6000816000015490506000826001015442109050801561034b57600060646003548461032f9190610d9f565b6103399190610e10565b905080836103479190610e41565b9250505b60018360020160006101000a81548160ff0219169083151502179055503373ffffffffffffffffffffffffffffffffffffffff166108fc839081150290604051600060405180830381858888f193505050501580156103ae573d6000803e3d6000fd5b503373ffffffffffffffffffffffffffffffffffffffff167f7ddb0f52c09d0a652326f8752badb1b7809d31aa94658d268fab71a403d51f8d83836040516103f7929190610e75565b60405180910390a250505061040a6107ef565b50565b6104156107f9565b6014811115610459576040517f08c379a000000000000000000000000000000000000000000000000000000000815260040161045090610eea565b60405180910390fd5b8060038190555050565b6060600260003373ffffffffffffffffffffffffffffffffffffffff1673ffffffffffffffffffffffffffffffffffffffff168152602001908152602001600020805480602002602001604051908101604052809291908181526020016000905b82821015610525578382906000526020600020906003020160405180606001604052908160008201548152602001600182015481526020016002820160009054906101000a900460ff161515151581525050815260200190600101906104c4565b50505050905090565b6105366107f9565b6105406000610880565b565b6000600160009054906101000a900473ffffffffffffffffffffffffffffffffffffffff16905090565b600034116105af576040517f08c379a00000000000000000000000000000000000000000000000000000000081526004016105a690610f56565b60405180910390fd5b600081426105bd9190610f76565b9050600260003373ffffffffffffffffffffffffffffffffffffffff1673ffffffffffffffffffffffffffffffffffffffff1681526020019081526020016000206040518060600160405280348152602001838152602001600015158152509080600181540180825580915050600190039060005260206000209060030201600090919091909150600082015181600001556020820151816001015560408201518160020160006101000a81548160ff02191690831515021790555050503373ffffffffffffffffffffffffffffffffffffffff167f0b05f0d1cd0819f155b8a61f60baf7767c1ee49d04aeaab701df236140eb93f934836040516106c3929190610faa565b60405180910390a25050565b600260205281600052604060002081815481106106eb57600080fd5b9060005260206000209060030201600091509150508060000154908060010154908060020160009054906101000a900460ff16905083565b61072b6107f9565b600073ffffffffffffffffffffffffffffffffffffffff168173ffffffffffffffffffffffffffffffffffffffff160361079d5760006040517f1e4fbdf70000000000000000000000000000000000000000000000000000000081526004016107949190610b5e565b60405180910390fd5b6107a681610880565b50565b6002600054036107e5576040517f3ee5aeb500000000000000000000000000000000000000000000000000000000815260040160405180910390fd5b6002600081905550565b6001600081905550565b610801610946565b73ffffffffffffffffffffffffffffffffffffffff1661081f610542565b73ffffffffffffffffffffffffffffffffffffffff161461087e57610842610946565b6040517f118cdaa70000000000000000000000000000000000000000000000000000000081526004016108759190610b5e565b60405180910390fd5b565b6000600160009054906101000a900473ffffffffffffffffffffffffffffffffffffffff16905081600160006101000a81548173ffffffffffffffffffffffffffffffffffffffff021916908373ffffffffffffffffffffffffffffffffffffffff1602179055508173ffffffffffffffffffffffffffffffffffffffff168173ffffffffffffffffffffffffffffffffffffffff167f8be0079c531659141344cd1fd0a4f28419497f9722a3daafe3b4186f6b6457e060405160405180910390a35050565b600033905090565b6000819050919050565b6109618161094e565b82525050565b600060208201905061097c6000830184610958565b92915050565b600080fd5b6109908161094e565b811461099b57600080fd5b50565b6000813590506109ad81610987565b92915050565b6000602082840312156109c9576109c8610982565b5b60006109d78482850161099e565b91505092915050565b600081519050919050565b600082825260208201905092915050565b6000819050602082019050919050565b610a158161094e565b82525050565b60008115159050919050565b610a3081610a1b565b82525050565b606082016000820151610a4c6000850182610a0c565b506020820151610a5f6020850182610a0c565b506040820151610a726040850182610a27565b50505050565b6000610a848383610a36565b60608301905092915050565b6000602082019050919050565b6000610aa8826109e0565b610ab281856109eb565b9350610abd836109fc565b8060005b83811015610aee578151610ad58882610a78565b9750610ae083610a90565b925050600181019050610ac1565b5085935050505092915050565b60006020820190508181036000830152610b158184610a9d565b905092915050565b600073ffffffffffffffffffffffffffffffffffffffff82169050919050565b6000610b4882610b1d565b9050919050565b610b5881610b3d565b82525050565b6000602082019050610b736000830184610b4f565b92915050565b610b8281610b3d565b8114610b8d57600080fd5b50565b600081359050610b9f81610b79565b92915050565b60008060408385031215610bbc57610bbb610982565b5b6000610bca85828601610b90565b9250506020610bdb8582860161099e565b9150509250929050565b610bee81610a1b565b82525050565b6000606082019050610c096000830186610958565b610c166020830185610958565b610c236040830184610be5565b949350505050565b600060208284031215610c4157610c40610982565b5b6000610c4f84828501610b90565b91505092915050565b7f4e487b7100000000000000000000000000000000000000000000000000000000600052603260045260246000fd5b600082825260208201905092915050565b7f416c72656164792077697468647261776e000000000000000000000000000000600082015250565b6000610cce601183610c87565b9150610cd982610c98565b602082019050919050565b60006020820190508181036000830152610cfd81610cc1565b9050919050565b7f4e6f206465706f73697420666f756e6400000000000000000000000000000000600082015250565b6000610d3a601083610c87565b9150610d4582610d04565b602082019050919050565b60006020820190508181036000830152610d6981610d2d565b9050919050565b7f4e487b7100000000000000000000000000000000000000000000000000000000600052601160045260246000fd5b6000610daa8261094e565b9150610db58361094e565b9250828202610dc38161094e565b91508282048414831517610dda57610dd9610d70565b5b5092915050565b7f4e487b7100000000000000000000000000000000000000000000000000000000600052601260045260246000fd5b6000610e1b8261094e565b9150610e268361094e565b925082610e3657610e35610de1565b5b828204905092915050565b6000610e4c8261094e565b9150610e578361094e565b9250828203905081811115610e6f57610e6e610d70565b5b92915050565b6000604082019050610e8a6000830185610958565b610e976020830184610be5565b9392505050565b7f50656e616c747920746f6f206869676800000000000000000000000000000000600082015250565b6000610ed4601083610c87565b9150610edf82610e9e565b602082019050919050565b60006020820190508181036000830152610f0381610ec7565b9050919050565b7f4465706f73697420736f6d6520616d6f756e7400000000000000000000000000600082015250565b6000610f40601383610c87565b9150610f4b82610f0a565b602082019050919050565b60006020820190508181036000830152610f6f81610f33565b9050919050565b6000610f818261094e565b9150610f8c8361094e565b9250828201905080821115610fa457610fa3610d70565b5b92915050565b6000604082019050610fbf6000830185610958565b610fcc6020830184610958565b939250505056fea264697066735822122073ad8f3bc5b20e2d72bb80c7501f85251c2c4f6999f6cda9f7203dc768d0a60764736f6c63430008140033",
  "linkReferences": {},
  "deployedLinkReferences": {}
}