{
  "_format": "hh-sol-artifact-1",
  "contractName": "TimeLockSavings",
  "sourceName": "contracts/TimeLockSavings.sol",
  "abi": [
    {
      "inputs": [
        {
          "internalType": "address",
          "name": "_penaltiesWallet",
          "type": "address"
        }
      ],
      "stateMutability": "nonpayable",
      "type": "constructor"
    },
    {
      "inputs": [
        {
          "internalType": "address",
          "name": "owner",
          "type": "address"
        }
      ],
      "name": "OwnableInvalidOwner",
      "type": "error"
    },
    {
      "inputs": [
        {
          "internalType": "address",
          "name": "account",
          "type": "address"
        }
      ],
      "name": "OwnableUnauthorizedAccount",
      "type": "error"
    },
    {
      "inputs": [],
      "name": "ReentrancyGuardReentrantCall",
      "type": "error"
    },
    {
      "anonymous": false,
      "inputs": [
        {
          "indexed": true,
          "internalType": "address",
          "name": "depositor",
          "type": "address"
        },
        {
          "indexed": false,
          "internalType": "uint256",
          "name": "amount",
          "type": "uint256"
        },
        {
          "indexed": false,
          "internalType": "string",
          "name": "reason",
          "type": "string"
        },
        {
          "indexed": false,
          "internalType": "uint256",
          "name": "maturityDate",
          "type": "uint256"
        },
        {
          "indexed": false,
          "internalType": "uint256",
          "name": "depositIndex",
          "type": "uint256"
        }
      ],
      "name": "DepositMade",
      "type": "event"
    },
    {
      "anonymous": false,
      "inputs": [
        {
          "indexed": true,
          "internalType": "address",
          "name": "previousOwner",
          "type": "address"
        },
        {
          "indexed": true,
          "internalType": "address",
          "name": "newOwner",
          "type": "address"
        }
      ],
      "name": "OwnershipTransferred",
      "type": "event"
    },
    {
      "anonymous": false,
      "inputs": [
        {
          "indexed": false,
          "internalType": "uint256",
          "name": "oldRate",
          "type": "uint256"
        },
        {
          "indexed": false,
          "internalType": "uint256",
          "name": "newRate",
          "type": "uint256"
        }
      ],
      "name": "PenaltyRateUpdated",
      "type": "event"
    },
    {
      "anonymous": false,
      "inputs": [
        {
          "indexed": true,
          "internalType": "address",
          "name": "depositor",
          "type": "address"
        },
        {
          "indexed": false,
          "internalType": "uint256",
          "name": "amount",
          "type": "uint256"
        },
        {
          "indexed": false,
          "internalType": "bool",
          "name": "early",
          "type": "bool"
        },
        {
          "indexed": false,
          "internalType": "uint256",
          "name": "penalty",
          "type": "uint256"
        }
      ],
      "name": "WithdrawalMade",
      "type": "event"
    },
    {
      "inputs": [
        {
          "internalType": "string",
          "name": "_reason",
          "type": "string"
        },
        {
          "internalType": "uint256",
          "name": "_maturityDate",
          "type": "uint256"
        }
      ],
      "name": "deposit",
      "outputs": [],
      "stateMutability": "payable",
      "type": "function"
    },
    {
      "inputs": [
        {
          "internalType": "address",
          "name": "",
          "type": "address"
        },
        {
          "internalType": "uint256",
          "name": "",
          "type": "uint256"
        }
      ],
      "name": "deposits",
      "outputs": [
        {
          "internalType": "uint256",
          "name": "amount",
          "type": "uint256"
        },
        {
          "internalType": "string",
          "name": "reason",
          "type": "string"
        },
        {
          "internalType": "uint256",
          "name": "maturityDate",
          "type": "uint256"
        },
        {
          "internalType": "bool",
          "name": "withdrawn",
          "type": "bool"
        }
      ],
      "stateMutability": "view",
      "type": "function"
    },
    {
      "inputs": [],
      "name": "earlyWithdrawalPenalty",
      "outputs": [
        {
          "internalType": "uint256",
          "name": "",
          "type": "uint256"
        }
      ],
      "stateMutability": "view",
      "type": "function"
    },
    {
      "inputs": [],
      "name": "getDeposits",
      "outputs": [
        {
          "components": [
            {
              "internalType": "uint256",
              "name": "amount",
              "type": "uint256"
            },
            {
              "internalType": "string",
              "name": "reason",
              "type": "string"
            },
            {
              "internalType": "uint256",
              "name": "maturityDate",
              "type": "uint256"
            },
            {
              "internalType": "bool",
              "name": "withdrawn",
              "type": "bool"
            }
          ],
          "internalType": "struct TimeLockSavings.Deposit[]",
          "name": "",
          "type": "tuple[]"
        }
      ],
      "stateMutability": "view",
      "type": "function"
    },
    {
      "inputs": [],
      "name": "owner",
      "outputs": [
        {
          "internalType": "address",
          "name": "",
          "type": "address"
        }
      ],
      "stateMutability": "view",
      "type": "function"
    },
    {
      "inputs": [],
      "name": "penaltiesWallet",
      "outputs": [
        {
          "internalType": "address",
          "name": "",
          "type": "address"
        }
      ],
      "stateMutability": "view",
      "type": "function"
    },
    {
      "inputs": [],
      "name": "renounceOwnership",
      "outputs": [],
      "stateMutability": "nonpayable",
      "type": "function"
    },
    {
      "inputs": [
        {
          "internalType": "uint256",
          "name": "_newPenalty",
          "type": "uint256"
        }
      ],
      "name": "setPenaltyRate",
      "outputs": [],
      "stateMutability": "nonpayable",
      "type": "function"
    },
    {
      "inputs": [
        {
          "internalType": "address",
          "name": "newOwner",
          "type": "address"
        }
      ],
      "name": "transferOwnership",
      "outputs": [],
      "stateMutability": "nonpayable",
      "type": "function"
    },
    {
      "inputs": [
        {
          "internalType": "uint256",
          "name": "_depositIndex",
          "type": "uint256"
        }
      ],
      "name": "withdraw",
      "outputs": [],
      "stateMutability": "nonpayable",
      "type": "function"
    }
  ],
  "bytecode": "0x60a0604052600a60035534801561001557600080fd5b5060405161106238038061106283398101604081905261003491610123565b6001600055338061006057604051631e4fbdf760e01b8152600060048201526024015b60405180910390fd5b610069816100d1565b506001600160a01b0381166100c05760405162461bcd60e51b815260206004820152601860248201527f496e76616c69642070656e616c746965732077616c6c657400000000000000006044820152606401610057565b6001600160a01b0316608052610153565b600180546001600160a01b038381166001600160a01b0319831681179093556040519116919082907f8be0079c531659141344cd1fd0a4f28419497f9722a3daafe3b4186f6b6457e090600090a35050565b60006020828403121561013557600080fd5b81516001600160a01b038116811461014c57600080fd5b9392505050565b608051610eee6101746000396000818160f301526103640152610eee6000f3fe6080604052600436106100915760003560e01c80638da5cb5b116100595780638da5cb5b146101645780638e27d71914610182578063a1bab44714610195578063d6d68177146101b5578063f2fde38b146101e557600080fd5b8063291a3d9e146100965780632e1a7d4d146100bf578063474ee081146100e15780636b149d871461012d578063715018a61461014f575b600080fd5b3480156100a257600080fd5b506100ac60035481565b6040519081526020015b60405180910390f35b3480156100cb57600080fd5b506100df6100da366004610a75565b610205565b005b3480156100ed57600080fd5b506101157f000000000000000000000000000000000000000000000000000000000000000081565b6040516001600160a01b0390911681526020016100b6565b34801561013957600080fd5b50610142610514565b6040516100b69190610ad4565b34801561015b57600080fd5b506100df610639565b34801561017057600080fd5b506001546001600160a01b0316610115565b6100df610190366004610b77565b61064d565b3480156101a157600080fd5b506100df6101b0366004610a75565b610827565b3480156101c157600080fd5b506101d56101d0366004610c48565b6108b8565b6040516100b69493929190610c72565b3480156101f157600080fd5b506100df610200366004610ca3565b610991565b61020d6109cc565b3360009081526002602052604090205481106102685760405162461bcd60e51b8152602060048201526015602482015274092dcecc2d8d2c840c8cae0dee6d2e840d2dcc8caf605b1b60448201526064015b60405180910390fd5b33600090815260026020526040812080548390811061028957610289610cc5565b60009182526020909120600490910201600381015490915060ff16156102e55760405162461bcd60e51b815260206004820152601160248201527020b63932b0b23c903bb4ba34323930bbb760791b604482015260640161025f565b80546103265760405162461bcd60e51b815260206004820152601060248201526f139bc819195c1bdcda5d08199bdd5b9960821b604482015260640161025f565b8054600282015460009042108015610425576064600354846103489190610cf1565b6103529190610d0e565b915061035e8284610d30565b925060007f00000000000000000000000000000000000000000000000000000000000000006001600160a01b03168360405160006040518083038185875af1925050503d80600081146103cd576040519150601f19603f3d011682016040523d82523d6000602084013e6103d2565b606091505b50509050806104235760405162461bcd60e51b815260206004820152601760248201527f50656e616c7479207472616e73666572206661696c6564000000000000000000604482015260640161025f565b505b60038401805460ff19166001179055604051600090339085908381818185875af1925050503d8060008114610476576040519150601f19603f3d011682016040523d82523d6000602084013e61047b565b606091505b50509050806104be5760405162461bcd60e51b815260206004820152600f60248201526e151c985b9cd9995c8819985a5b1959608a1b604482015260640161025f565b60408051858152831515602082015290810184905233907fa37f81da89fc35ea95622bea587259b7db5758c134bb3f0b4b8321cbea6679d79060600160405180910390a250505050506105116001600055565b50565b336000908152600260209081526040808320805482518185028101850190935280835260609492939192909184015b8282101561063057838290600052602060002090600402016040518060800160405290816000820154815260200160018201805461058090610d43565b80601f01602080910402602001604051908101604052809291908181526020018280546105ac90610d43565b80156105f95780601f106105ce576101008083540402835291602001916105f9565b820191906000526020600020905b8154815290600101906020018083116105dc57829003601f168201915b5050509183525050600282015460208083019190915260039092015460ff1615156040909101529082526001929092019101610543565b50505050905090565b6106416109f6565b61064b6000610a23565b565b6106556109cc565b600034116106b35760405162461bcd60e51b815260206004820152602560248201527f4465706f73697420616d6f756e74206d75737420626520677265617465722074604482015264068616e20360dc1b606482015260840161025f565b42811161070e5760405162461bcd60e51b815260206004820152602360248201527f4d617475726974792064617465206d75737420626520696e207468652066757460448201526275726560e81b606482015260840161025f565b60008251116107585760405162461bcd60e51b8152602060048201526016602482015275526561736f6e2063616e6e6f7420626520656d70747960501b604482015260640161025f565b336000908152600260209081526040808320805482516080810184523481528085018881529381018790526060810186905260018083018455928652939094208351600486029091019081559151908201906107b49082610dcc565b5060408281015160028301556060909201516003909101805460ff19169115159190911790555133907f66df69957ceb18b43d8949c4d413cf8dd7fe95185032e6a80cf704530e04374b90610810903490879087908790610e8c565b60405180910390a2506108236001600055565b5050565b61082f6109f6565b60148111156108735760405162461bcd60e51b815260206004820152601060248201526f0a0cadcc2d8e8f240e8dede40d0d2ced60831b604482015260640161025f565b600380549082905560408051828152602081018490527fdd20540e487a8668a900c5089d9e5d2cb4cb734eef8e75a3a4842ce04ac79d9d910160405180910390a15050565b600260205281600052604060002081815481106108d457600080fd5b9060005260206000209060040201600091509150508060000154908060010180546108fe90610d43565b80601f016020809104026020016040519081016040528092919081815260200182805461092a90610d43565b80156109775780601f1061094c57610100808354040283529160200191610977565b820191906000526020600020905b81548152906001019060200180831161095a57829003601f168201915b50505050600283015460039093015491929160ff16905084565b6109996109f6565b6001600160a01b0381166109c357604051631e4fbdf760e01b81526000600482015260240161025f565b61051181610a23565b6002600054036109ef57604051633ee5aeb560e01b815260040160405180910390fd5b6002600055565b6001546001600160a01b0316331461064b5760405163118cdaa760e01b815233600482015260240161025f565b600180546001600160a01b038381166001600160a01b0319831681179093556040519116919082907f8be0079c531659141344cd1fd0a4f28419497f9722a3daafe3b4186f6b6457e090600090a35050565b600060208284031215610a8757600080fd5b5035919050565b6000815180845260005b81811015610ab457602081850181015186830182015201610a98565b506000602082860101526020601f19601f83011685010191505092915050565b60006020808301818452808551808352604092508286019150828160051b87010184880160005b83811015610b5357603f19898403018552815160808151855288820151818a870152610b2982870182610a8e565b838a0151878b01526060938401511515939096019290925250509386019390860190600101610afb565b509098975050505050505050565b634e487b7160e01b600052604160045260246000fd5b60008060408385031215610b8a57600080fd5b823567ffffffffffffffff80821115610ba257600080fd5b818501915085601f830112610bb657600080fd5b813581811115610bc857610bc8610b61565b604051601f8201601f19908116603f01168101908382118183101715610bf057610bf0610b61565b81604052828152886020848701011115610c0957600080fd5b826020860160208301376000602093820184015298969091013596505050505050565b80356001600160a01b0381168114610c4357600080fd5b919050565b60008060408385031215610c5b57600080fd5b610c6483610c2c565b946020939093013593505050565b848152608060208201526000610c8b6080830186610a8e565b60408301949094525090151560609091015292915050565b600060208284031215610cb557600080fd5b610cbe82610c2c565b9392505050565b634e487b7160e01b600052603260045260246000fd5b634e487b7160e01b600052601160045260246000fd5b8082028115828204841417610d0857610d08610cdb565b92915050565b600082610d2b57634e487b7160e01b600052601260045260246000fd5b500490565b81810381811115610d0857610d08610cdb565b600181811c90821680610d5757607f821691505b602082108103610d7757634e487b7160e01b600052602260045260246000fd5b50919050565b601f821115610dc757600081815260208120601f850160051c81016020861015610da45750805b601f850160051c820191505b81811015610dc357828155600101610db0565b5050505b505050565b815167ffffffffffffffff811115610de657610de6610b61565b610dfa81610df48454610d43565b84610d7d565b602080601f831160018114610e2f5760008415610e175750858301515b600019600386901b1c1916600185901b178555610dc3565b600085815260208120601f198616915b82811015610e5e57888601518255948401946001909101908401610e3f565b5085821015610e7c5787850151600019600388901b60f8161c191681555b5050505050600190811b01905550565b848152608060208201526000610ea56080830186610a8e565b604083019490945250606001529291505056fea264697066735822122010250e4f79df4979725d5065ce87b060594cc8c66adffece3fd3d550410d050064736f6c63430008140033",
  "linkReferences": {},
  "deployedLinkReferences": {}
}